:020000040800F2
:10000000000002205506000851060008A95000080B
:1000100051060008510600085106000800000000C3
:100020000000000000000000000000005106000871
:100030005106000800000000510600089950000811
:100040005106000851060008510600085106000834
:100050005106000851060008510600085106000824
:10006000510600085106000851060008B54B00086B
:10007000C14B0008ED370008CD4B0008D94B0008F4
:10008000510600083D4100085106000851060008CD
:1000900051060008510600085106000851060008E4
:1000A00051060008510600085106000851060008D4
:1000B0005106000851060008510600086141000879
:1000C000510600086D41000851060008510600085D
:1000D00051060008510600085106000851060008A4
:1000E00051060008510600080000000051060008F3
:1000F0005106000851060008510600085106000884
:100100005106000851060008510600085106000873
:100110005106000851060008BD3A000851060008C3
:10012000A53A0008B13A0008510600085106000837
:100130005106000851060008510600085106000843
:1001400000000000000000000000000000000000AF
:100150005106000851060008510600085106000823
:1001600079410008510600085106000851060008B0
:100170005106000851060008510600085106000803
:1001800051060008510600085106000851060008F3
:1001900051060008510600085106000851060008E3
:1001A00051060008510600085106000851060008D3
:1001B000FD480008510600085106000851060008D5
:1001C00051060008510600085106000851060008B3
:1001D00051060008510600085106000851060008A3
:1001E0005106000851060008510600085106000893
:1001F0005106000851060008510600085106000883
:100200005106000851060008510600085106000872
:100210005106000851060008510600085106000862
:1002200051060008510600085106000800000000B1
:1002300051060008510600080000000051060008A1
:100240005106000851060008510600085106000832
:100250005106000851060008510600085106000822
:100260005106000851060008510600085106000812
:100270005106000851060008510600080000000061
:100280005106000851060008510600080000000051
:08029000000000005106000807
:1002980010B5054C237833B9044B13B10448AFF3B8
:1002A80000800123237010BD2801002400000000F5
:1002B800F8E6000808B5034B1BB103490348AFF340
:1002C800008008BD000000002C010024F8E60008AA
:1002D80081F0004102E000BF83F0004330B54FEAEF
:1002E80041044FEA430594EA050F08BF90EA020F5C
:1002F8001FBF54EA000C55EA020C7FEA645C7FEAEF
:10030800655C00F0E2804FEA5454D4EB5555B8BF11
:100318006D420CDD2C4480EA020281EA030382EA82
:10032800000083EA010180EA020281EA0303362D14
:1003380088BF30BD11F0004F4FEA01314FF4801CE7
:100348004CEA113102D0404261EB410113F0004FF9
:100358004FEA03334CEA133302D0524263EB4303B0
:1003680094EA050F00F0A780A4F10104D5F1200E4E
:100378000DDB02FA0EFC22FA05F2801841F10001A9
:1003880003FA0EF2801843FA05F359410EE0A5F17D
:1003980020050EF1200E012A03FA0EFC28BF4CF0AE
:1003A800020C43FA05F3C01851EBE37101F0004564
:1003B80007D54FF0000EDCF1000C7EEB00006EEB71
:1003C8000101B1F5801F1BD3B1F5001F0CD34908FB
:1003D8005FEA30004FEA3C0C04F101044FEA445252
:1003E80012F5800F80F09A80BCF1004F08BF5FEAD9
:1003F800500C50F1000041EB045141EA050130BDB9
:100408005FEA4C0C404141EB0101013C28BFB1F5CA
:10041800801FE9D291F0000F04BF01460020B1FA15
:1004280081F308BF2033A3F10B03B3F120020CDAE8
:100438000C3208DD02F1140CC2F10C0201FA0CF0C6
:1004480021FA02F10CE002F11402D8BFC2F1200C2B
:1004580001FA02F120FA0CFCDCBF41EA0C019040E1
:10046800E41AA2BF01EB0451294330BD6FEA04042A
:100478001F3C1CDA0C340EDC04F11404C4F1200215
:1004880020FA04F001FA02F340EA030021FA04F327
:1004980045EA030130BDC4F10C04C4F1200220FA7E
:1004A80002F001FA04F340EA0300294630BD21FABC
:1004B80004F0294630BD94F0000F83F4801306BF82
:1004C80081F480110134013D4EE77FEA645C18BF76
:1004D8007FEA655C29D094EA050F08BF90EA020F0D
:1004E80005D054EA000C04BF1946104630BD91EA05
:1004F800030F1EBF0021002030BD5FEA545C05D108
:100508004000494128BF41F0004130BD14F5800446
:100518003CBF01F5801130BD01F0004545F0FE41BA
:1005280041F470014FF0000030BD7FEA645C1ABFEF
:10053800194610467FEA655C1CBF0B46024650EA26
:10054800013406BF52EA033591EA030F41F4002152
:1005580030BD00BF90F0000F04BF0021704730B5D8
:100568004FF4806404F132044FF000054FF00001AD
:1005780050E700BF90F0000F04BF0021704730B56E
:100588004FF4806404F1320410F0004548BF404243
:100598004FF000013EE700BF42004FEAE2014FEA98
:1005A80031014FEA02701FBF12F07F4393F07F4F73
:1005B80081F06051704732F07F4208BF704793F076
:1005C8007F4F04BF41F40021704730B54FF4607489
:1005D80001F0004521F000411CE700BF50EA01028C
:1005E80008BF704730B54FF000050AE050EA010235
:1005F80008BF704730B511F0004502D5404261EBA5
:1006080041014FF4806404F132045FEA915C3FF4E5
:10061800D8AE4FF003025FEADC0C18BF03325FEA82
:10062800DC0C18BF033202EBDC02C2F1200300FA33
:1006380003FC20FA02F001FA03FE40EA0E0021FA58
:1006480002F11444BDE600BFFEE700BF0B480C4AA8
:10065800904203D0121A0B490DF006FC0A480B4AC7
:10066800904203D0121A00210DF00CFC04F08CFE0D
:100678000DF0D6FB00F0AEF9FEE700BF0000002445
:100688002801002414E7000828010024FC1D002488
:10069800704700BF704700BF704700BF704700BF7A
:1006A80001230349034A81F8343082F83430704713
:1006B8002C0A0024E801002401230349034A81F895
:1006C8006C3082F86C307047E80100242C0A002452
:1006D800024B012283F8A420704700BFE8010024E0
:1006E800024B012283F8DC20704700BFE801002498
:1006F800024B012283F81421704700BFE80100244F
:10070800704700BF704700BF704700BF704700BF09
:10071800704700BF10B5037D82B0044601335BB259
:10072800012B037503DDFF23037502B010BD81683B
:1007380003EB831203440A44197B0A4B41F040013E
:1007480001900093412303F021FE0028EDD02046BC
:1007580003F000FE0146204602B0BDE8104003F059
:100768007FBD00BF1D0700082DE9F84F694C6A4896
:100778006A4D6B4EDFF8F0B1DFF8F0A12DED068B76
:10078800F0EE408A02F06CFB6648B7EE008A84ED12
:10079800000A02F065FB644884ED010A02F060FB80
:1007A800624884ED020A02F05BFB614884ED030AAB
:1007B80002F056FB5F4884ED060A02F051FBF0EEAA
:1007C800407A5D4B0122B0EE680A2846C4ED077AEC
:1007D8005A4C5A60DA6083ED008A83ED028A0CF085
:1007E800BFF923682846EB600CF0D6F905F118002C
:1007F800B0EE680A0CF0B4F9236805F11800504C03
:100808006B620CF0C9F988EE28AA4E4D04F1C809AC
:100818009FED4D8A4FF000082046C4ED038A84ED11
:10082800028AF6EE009A84ED04AAC4F81480B0EEA9
:10083800480AB7EE009A454FC4ED019A0CF008FD3E
:10084800F0EE407A0123002284ED028A204684F8E3
:100858002530B0EE480A84F82430283404F8282CCF
:1008680044ED047A0CF0F4FCF0EE407A304604EDE6
:10087800099AB0EE680A9FED368A44ED047A383654
:100888000CF07AF82846B0EE680A46F8307C06ED97
:100898000B8A383506ED089A46F8248C0CF06CF86B
:1008A800BAEC017A4C45FBEC017A2A4B77EE877A51
:1008B80045F8307C05ED0B8A45F8183C05ED097ABA
:1008C80045ED087AA4D1B0EE680A23480CF092F9F5
:1008D800B0EE690A20480CF079FA1F489FED1F0A0C
:1008E8000CF010FAB0EE680A1D480CF083F9B0EE6F
:1008F800690A1B480CF06AFA19489FED1A0A0CF0AD
:1009080001FAB0EE490A1648BDEC068BBDE8F84F6F
:100918000CF0A2BA880700244009002458070024D4
:10092800E8010024D80800240C090024A4080024A5
:10093800A809002474090024CC070024A800002476
:10094800DC0700242C0A00240000C8420AD7233CF4
:10095800CDCC4C3E000048C2000300240000FA45FC
:10096800440B002400007A446C0000249400002406
:1009780010B5124C94F865327F2B05D1104A114BF3
:10098800127853F82230984794F875327F2B00D0AC
:1009980010BD0D48D0ED007AF5EE407AF1EE10FA70
:1009A80005D09FED0A0ABDE810400CF089BC084B41
:1009B800BDE8104093ED000A0CF082BC4C03002403
:1009C800C807002404000024940B00240000000041
:1009D800AC00002430B500215548564D2DED028B52
:1009E80089B000F031FC524800F0E8FDA5F5207010
:1009F800F0EE408A01AC00F0E3FDF7EE000AB0EE3D
:100A0800408A9FED4D0A0FCD0FC495E8070084E892
:100A18000700012201A9494802F0ECF905F10C0C84
:100A28000DF1040EF7EE000A9FED430ABCE80F0033
:100A3800AEE80F009CE8070084E80700002201A93F
:100A48003F4802F0D7F905F1280C0DF1040EF7EE36
:100A5800000A9FED390ABCE80F00AEE80F009CE8D9
:100A6800070084E80700002201A9364802F0C2F90D
:100A780005F1440C0DF1040EF7EE000A9FED2E0A65
:100A8800BCE80F00AEE80F009CE8070084E8070008
:100A9800002201A92C4802F0ADF905F1980C0DF1DE
:100AA800040EF3EE040AB0EE000ABCE80F00AEE84C
:100AB8000F009CE8070084E80700022201A92348E8
:100AC80002F098F905F1B40C0DF1040EF1EE020AEA
:100AD800B6EE000ABCE80F00AEE80F009CE807007D
:100AE80084E80700002201A9194802F083F9B0EE52
:100AF800680AFFF739FEF0EE480AB0EE080A154812
:100B08000CF0B2FB0021A02213480DF0BBF9134BE7
:100B18000022A5F52470C3E90022C3E902221A6164
:100B280000F050FD0E49A5F5247000F045FDFEE7E4
:100B38004C030024CC0500240000000040090024D8
:100B4800D80800240C090024A4080024A8090024BB
:100B580074090024940B002444010024880700240D
:100B6800390F000870B511480CF090FBE0B1104D3A
:100B78000024104E2A7806EB44130F49013202F084
:100B88000F029B5C2A7013B151F824309847013446
:100B9800052C09D02A7806EB441307499B5C002BE7
:100BA800F2D10134052CF5D170BD00BF940B00249F
:100BB800E401002444010024040000242DE9F0414C
:100BC800DFF8308182B00024424E434D434F2FE07E
:100BD800434A444B127803EB4213195D00293DD078
:100BE800414BB2212B6058F8043F07EB4101FA6CE6
:100BF80040F6FE7CC3F3071003F00F03B1F85EE084
:100C080000EB8010E64500EB83031344B3F80110B2
:100C1800C1F30B010EEB0100C0F30B00A3F80300B6
:100C280001D941F480510134A3F80110102C18D0D7
:100C380021462A4800F0B8FD40B1294A294B1278CC
:100C480003EB42131A5D82F001021A553378A3426E
:100C5800BED14FF07E53FF212B60C4E700232B60E9
:100C6800C1E7396D0023C7E9131202EB830401EBD6
:100C780083000133B4F80340102BA0F80340F4D1EB
:100C8800002302EB830401EB83000133B4F84440F2
:100C9800102BA0F84440F4D1144C0023144897F8C2
:100CA80054100090204687F85C3041F04001412301
:100CB800019403F06BFB10B902B0BDE8F081204647
:100CC80003F048FB0146204602B0BDE8F04103F0BE
:100CD800C7BA00BFE4010024900B00244C03002491
:100CE800C8070024440100243333333F940300240D
:100CF8001D070008140000242DE9F04F764883B042
:100D0800764D02F0ADF8764885ED000A02F0A8F8B5
:100D1800744885ED010A02F0A3F8734885ED020ACC
:100D280002F09EF8714885ED030A02F099F87048C0
:100D380085ED060A02F094F86E4B28466E4C197839
:100D480000236E4A04EB011185ED070AF0EC016AF5
:100D58005E1CB2EC017A36EEC77A9FED5D5BB0EEB1
:100D6800C77AB7EEC77AB4EEC57BF1EE10FA05DDA7
:100D7800032B42ED016A98BFC1ED006AF3B204315A
:100D8800082BE3D1DFF898A1DFF89891DFF8988174
:100D9800D3465B4ECE465B4FC446574B32465A4904
:100DA80001970198103313ED045A3831F0EC017AA9
:100DB800383213ED036AFBEC015ABEEC017AFCEC05
:100DC800016AA5EE257A0190E6EE267A4F48984208
:100DD80001ED087A42ED0B7AE3D1D4ED025A98ED91
:100DE800006AD7ED007AD4ED046AE5EE867A464BC0
:100DF8009AED017A99ED010A4548A6EE870AC3EDF6
:100E0800037A0BF07FFF94ED060A41480BF0DEFFF2
:100E1800DAED027A94ED087A99ED020A3D48A7EED8
:100E2800270A0BF06FFF94ED0A0A3A480BF0CEFF41
:100E380097ED037A98ED036AF0EE475AD8ED046A05
:100E4800D7ED047AD4ED0E3A94ED0F4A94ED135A87
:100E5800E3EE865AA6EE047A236CB0EE676A2E4853
:100E6800E6EE857AD4ED124AC6F8F430636CA4EE47
:100E7800A66A95ED060AC6F8F830284BC6ED3B7A07
:100E8800D0ED007A83ED000AF5EE407A236BC6EDCB
:100E98002C5AC6F8BC30F1EE10FA636B86ED2D7A49
:100EA80086ED3A6AC6F8C0300CD1D5ED077A114AFA
:100EB800FBFE677AFCEEE77A17EE903A137003B000
:100EC800BDE8F08F0CF0FCF9EFE700BFAFF300804E
:100ED8007B14AE47E17A743F40090024A807002438
:100EE800D80800240C090024A4080024A809002418
:100EF80074090024C8070024DC090024880700249A
:100F0800E8010024800000242C0A00240C0A002494
:100F1800440B002400030024940B0024AC0000249C
:100F28006C000024940000245800002400000000F5
:100F38002DE9F04F2DED0A8B85B014468B46FFF74F
:100F480011FE6D4800F060FB6B4800F03FFBFFF7B7
:100F58000FFDFFF7D1FEFFF731FE002C00F0BD803A
:100F6800631E4FF00008654C5B08654F654EDFF85F
:100F7800B4A1DFF8B891644D01939FED5B9B634882
:100F88000BF1080B0BF010FD6148B0EE40BA0BF006
:100F98000BFD6048F0EE40BA0BF006FD616844F2C4
:100FA800A710E368DFED5C7AB0EE40CA00FB01F100
:100FB800D4ED006A00FB03F394ED027A06EE101AF2
:100FC8006160E360F8EEC68A06EE103A5348B8EE60
:100FD800C6AADFED53AA68EEA78A2AEE27AA68EE0A
:100FE800A68A2AEE07AA0BF0DFFC454887ED020A1D
:100FF8000CF02EF96BEE0B7A96ED037A404887EDEC
:10100800060A67EE877AC7ED017A0BF03FFFB7EE65
:10101800CB7A4448B7EEC05A6BEEA88A9FED346B82
:1010280028EEAB0A29EE066B26EE076BA7EE065BE9
:10103800B0EE458B0BF002FEDAF8303002A93A48E0
:1010480002930BF099FD3948F0EE40BA2CEE0A0AEB
:10105800D6ED07CA0BF0F2FDD9F8343003A93448AD
:1010680003930BF089FD96ED0BCA6BEEACBA3148D1
:1010780020EE0CBA0BF098FCB0EE40AA2E480BF00C
:1010880093FC1D486AEE2A7AB0EE40AAFCEEE77A95
:1010980017EE903A99B200F07BFB6AEE2A7A16486E
:1010A800FCEEE77A17EE903A99B200F077FBB7EECC
:1010B800C88B019A0023ACEEAB8A424508F10108BF
:1010C800ACEE0B8A0BED028A0BED018A2B606B608C
:1010D800AB60EB602B617FF452AF05B0BDEC0A8BBF
:1010E800BDE8F08FAFF300800000000000000000B2
:1010F800FCA9F1D24D62503F4C030024CC070024D8
:10110800DC070024DC090024A40B0024E8010024E7
:101118002002002458020024000000302C0A002479
:1011280000F07F45440B00245807002400030024E6
:101138007007002490020024C802002470B52D4CCA
:1011480000252D4922462D480CF0CAF822462A4986
:101158002B480CF0C5F8224627492A480CF0C0F85D
:10116800224625492848294E0CF0BAF82246224939
:1011780027480CF0B5F822461F4926480CF0B0F86D
:1011880025494FF4007206F15E0075613562B56459
:101198000CF06AFE2246214930460CF0A1F822469E
:1011A8001F4928460CF09CF822461E4928460CF098
:1011B80097F822461C4928460CF092F822461B490B
:1011C80028460CF08DF8224619491A480CF088F880
:1011D8002246174918480CF083F822461749284632
:1011E8000CF07EF8224616491648BDE870400CF00F
:1011F80077B800BF00000024A106000840090024B9
:10120800D80800240C090024A40800244C03002456
:1012180074090024A80900249CDE0008A50600081B
:101228000907000815070008190700080D07000836
:101238009906000800030024440B00241107000845
:101248009D060008940B00242DE9F04304462DED7B
:10125800028BB5B0039100F0BDFA0399204600F067
:101268005BFB302120460DAE00F0F8FACC4B1EADEA
:101278000EAF93E803000D901E208DF8381000F093
:10128800CFFAADF87800204600F004FB1E9904F56B
:10129800187001F03BFE1D2000F0C2FA03462046FC
:1012A800ADF8783000F0F6FA1E9904F51C7001F0DC
:1012B8002DFE16F8010B00F0B3FA03462846113547
:1012C800ADF81830069901F065FEBE42F1D1102044
:1012D80004F1180700F0A4FA0346152015AEADF87E
:1012E8001C3000F09DFA0346142004F520750DF11A
:1012F8007408ADF8203000F093FA034613209FEDF0
:10130800A98AADF8243000F08BFABDF82420089B98
:101318000799ADF800200822ADF80400ADF82800C0
:101328002FA801F045FE042305221EA9384601F026
:101338006DFEDFF880E20DF1580CBEE80F00ACE856
:101348000F009EE80F008CE80F0056F8042F0421C8
:101358003846D2B202F0EEF901462046039100F079
:1013680099FA00232846F0EE480A03991A461C35D4
:1013780001F0E2FAB045E8D104F558760025E9B263
:10138800384602F0CDF9014601352046039100F0B8
:1013980081FA3046039901F0E7FA042D06F11C069C
:1013A800EDD11C20012500F03BFA03461B20002745
:1013B800ADF83C3000F034FA03461A207A4EADF806
:1013C8003E3000F02DFAADF84000BDF840300F98DF
:1013D800A4F8D433BDF83C30A4F8E853C4F8D003DB
:1013E80004F2E630A4F8E63302F028FCBDF83E30FB
:1013F80004F2EA30A4F8EC53A4F8EA3304F14805FF
:1014080002F01CFCBDF8403004F2EE30A4F8F07392
:10141800A4F8EE3302F012FC0920C4F8D673C4F81D
:10142800DA73C4F8DE73C4F8E27300F0F9F90B2339
:101438000BA9ADF82C0004F13C00ADF82E3001F0FA
:101448003BFB5A490CA80C9702F00AFF0C9B394643
:101458004FF0060EC4E9123606F184032365544B97
:101468006365FF2384F85C3000E0E66C0A1101F044
:101478000F008B00013102EB82129BB2202906F883
:1014880002E002EB8000D4E9137607EB000CACF81D
:101498000130ACF8033006F802E0226D0244A2F8ED
:1014A8000130A2F80330E0D194F856300B2B0FD05E
:1014B800B4F85620012304F15800A4F85820A4F8E1
:1014C8005A30039002F0BAFB0021039802F0A0FC06
:1014D80004F1540804F15609002718F8011B0126E5
:1014E800022311AA41F04001284600960391ADF865
:1014F800447002F031FF142003F0D4FD022311AA36
:10150800039928460096ADF8447002F025FF142090
:1015180003F0C8FD4FF4005311AA0399ADF8443005
:1015280028460223009602F017FF142003F0BAFDA4
:1015380043F20163039911AAADF844300523284604
:101548000093022302F008FFC845C6D1002000F02E
:1015580067F905A9ADF8140004F1410001F048FA53
:10156800A4F83F600F2000F05BF900B284F83D005A
:10157800C0F3072084F83E0004F13D0002F05EFB52
:10158800022311A904F12000CDE91467CDE912372F
:1015980002F09EFA35B0BDEC028BBDE8F08300BFC7
:1015A800DCE000086F12033B00000030E4E00008B4
:1015B80000020B009CE0000800F048B900F04AB9AE
:1015C80000F068B9183002F095B800BF70B506464B
:1015D80000F5207400F5587520461C3401F0E4F934
:1015E800AC42F9D1204601F0DFF906F55F7001F051
:1015F800DBF906F5667001F0D7F906F56D70BDE800
:10160800704001F0D1B900BF2DE9F041044600F562
:10161800187001F099FC04F2E63504F2EA3704F593
:101628001C7004F2D63801F08FFC002128462E46A3
:1016380002F0EEFB0121384602F0EAFB012003F03C
:1016480033FD384604F2EE37002102F0E1FB0021B9
:10165800284602F0DDFB012003F026FD384602F0A3
:10166800C9FB00384FF0010118BF012006F8010D31
:10167800284602F0CDFB012003F016FD4645E6D1D1
:1016880094F8F93394F8D62394F8F80342EA43021D
:1016980094F8D73394F8F71343EA400394F8D8033F
:1016A80094F8F65340EA410084F8F92394F8D913E2
:1016B80094F8F52384F8F83341EA450194F8DA33CD
:1016C80094F8F35343EA420394F8F47394F8DB2351
:1016D80084F8F70384F8F61342EA470294F8F21301
:1016E80094F8DC0384F8F53394F8DD3340EA4500D8
:1016F80094F8016443EA410394F8005494F8DE1323
:1017080084F8F42384F8F30341EA460194F8FF03CC
:1017180094F8DF2384F8F23394F8E03342EA450280
:1017280084F8011443EA400384F8002404F14100DA
:1017380084F8FF3394F8FE1394F8E12394F8FD330A
:1017480042EA410294F8E21394F8FC6341EA430147
:1017580094F8E33394F8FB5343EA460384F8FE23F2
:1017680084F8FD1394F8E42394F8FA1384F8FC330E
:1017780042EA450294F8E53384F8FB2343EA41033F
:1017880084F8FA3301F03CF984F80804BDE8F081E4
:101798000A462030002102F019BA00BF0A4620305C
:1017A800012102F013BA00BF014491F8F203A0F13D
:1017B8008000B0FA80F04009704700BF044B062251
:1017C8001A7083F8412083F8842083F8C520704775
:1017D800000000300F4A01230F494FF0060C80F833
:1017E8002730816040F2027180F810C0A0F82510FF
:1017F80080F82B3010B4094CC0E9004202F1817224
:101808005DF8044B0532C26040F60662A0F8292054
:10181800704700BF01050805090507050007050011
:101828001F2882B009D8084B03EB400213F8103088
:10183800507843EA002002B0704701230C2043EAA5
:10184800002002B0704700BFF0E00008143001F03B
:1018580055B800BF143001F04DB800BF38B500F1DD
:10186800140504462DED028B284601F035F828466C
:1018780001F040F82846B0EE408A01F029F8D0ED92
:10188800007AF8EE677A88EE277ABDEC028B84ED51
:101898000E7A38BD90ED0E0A704700BF00000000B8
:1018A80030B5032491B00125194900234FF4417242
:1018B800089106A9ADF8242002939FED137BCDE98A
:1018C8000A45144D044602A88DED0C7B8DED0E7B68
:1018D800CDE9063503F0F8F940F601333025ADF8C7
:1018E8000430019800F056F803214FF07E53029A15
:1018F80004F114000593CDE9035103A900F0B6FFE4
:1019080011B030BDAFF300800000000001000000FE
:10191800040504060402040430B504462DED028BC8
:1019280083B089B3012240F201130092ADF804306C
:10193800694604F1300003F087FC204600F04CF8BB
:10194800E01C02F061FD04F1250002F077F904F1D2
:10195800140504F1290002F071F92046FFF7A0FFF1
:10196800284600F0C7FF2846B0EE408A00F0B0FFD6
:10197800D0ED007AF8EE677A88EE277A84ED0E7A51
:1019880003B0BDEC028B30BD40F201130091ADF8FD
:101998000430CDE710B584B003460124ADF8040047
:1019A80003A8ADF80C30ADF80E4002F047F9214617
:1019B80003A802F02DFA204603F074FB002103A8C7
:1019C80002F026FA204603F06DFB214603A802F038
:1019D8001FFA04B010BD00BFF0B53F4C8BB0A06338
:1019E80003781BB1002528460BB0F0BD00220793F1
:1019F80001233A49201D61600321C4E9022308221A
:101A0800202306910A21C4E9042340224FF4C0731D
:101A1800089102A9C4E9062300224FF40063C4E92F
:101A280008234FF480520023C4E90A230222072323
:101A3800CDE9022304220823CDE904230AF030F873
:101A48000546002844D1102301220126002702A9B7
:101A58000190201DCDE902234FF48052CDE904679F
:101A68000AF048F8642003F04BFD02A94FF48052B5
:101A7800201DCDE9046702261027CDE902670AF088
:101A880039F80322102302A9201DCDE902230023DF
:101A98000422CDE904234FF480520AF02BF840F2D7
:101AA8003223042202A901931023201DCDE9022329
:101AB800019A012305924FF4805204930AF01AF810
:101AC80040F60601201D0AF035F828460BB0F0BD97
:101AD800012528460BB0F0BDC00B00244041005240
:101AE8006A4A00232DE9F04315688FB00A9315B1AF
:101AF8000FB0BDE8F083664B01210C244FF00308BA
:101B080011600026D3F8D4200327624842F480529B
:101B1800DFF89891C3F8D420D3F8D42002F4805287
:101B28000092009AD3F8E02042F01002C3F8E020B7
:101B3800D3F8E02002F010020192019AD3F8E020D5
:101B480042F04002C3F8E020D3F8E02002F040025F
:101B58000292029AD3F8E02042F00802C3F8E0208B
:101B6800D3F8E02002F008020392039AD3F8E020A9
:101B780042F48072C3F8E020D3F8E02002F48072C7
:101B88000492049AD3F8E02042F08002C3F8E020DF
:101B9800D3F8E02002F080020592059AD3F8E020FD
:101BA80042F02002C3F8E020D3F8E02002F020023F
:101BB8000692069AD3F8E02042F00402C3F8E02027
:101BC8004FF68372D3F8E0300C9403F00403CDF899
:101BD8002C8007930223079908A9CDE9082305F06B
:101BE80041FC48F23712022308A92B480C94CDE98E
:101BF8000823CDE90A6705F035FC4CF2037202238D
:101C080008A926480C94CDE90823CDE90A6705F010
:101C180029FC40F2FF62022308A921480C94CDE96F
:101C28000823CDE90A6705F01DFC4FF60C72022364
:101C380008A91C480C94CDE90823CDE90A6705F0EA
:101C480011FC4FF63F02022308A917480C94CDE96E
:101C58000823CDE90A6705F005FCD9F838000130FA
:101C680003F0D4FBD9F838300646581C03F0D6FBED
:101C78000223089008A930460A950993CDE90B84F8
:101C880005F0F0FB0FB0BDE8F08300BFB80B0024EF
:101C9800004402580010025800180258000C02585C
:101CA80000200258001C025800140258C00B0024DF
:101CB8002DE9F04FDFF8108406460D46144608F16A
:101CC80014002DED028B89B000AF03F0F5F8D8F8B9
:101CD800143073B3D8F81830D8F80490002B43693F
:101CE8000BBF4FF0080A4FF0100A4FF0020B4FF0ED
:101CF800040BB9F1000F2AD0A200EA46012B02F129
:101D0800070222F00702ADEB020D6846ADEB020DAB
:101D1800694600F03F81022B00F0D680002B6FD07F
:101D28002246C847D5462437BD46BDEC028BBDE8E0
:101D3800F08FD8F81830002BF5D0D8F804904FF071
:101D4800080A4FF0020B4369B9F1000FD4D1FB61C7
:101D5800D8F80030BB61002BE5D0D54803F0F4F883
:101D68006B46BBF1020F786108EE103AFB6900F090
:101D780083816A465146A2EBC40295466200EA4650
:101D8800B2FBFBF2AAEBC40085460AEB8200EE46E2
:101D9800F861ADEB010DF8690EEB820CC7F810C0C5
:101DA800EC46ADEB010D00EB8201CCF80400CCF859
:101DB800081001EB82013869E946CCF80C1000EBF9
:101DC8008201CCF800A001EB8202C9E900E0C9E970
:101DD8000212012B00F06483022B00F06C82002BAE
:101DE80000F08081620849466046BB69984718EE52
:101DF800103A24379D46BD46BDEC028BBDE8F08FF6
:101E0800002C8DD01A46D8ED0B6A9FEDB27A844625
:101E1800331D36F922E00CF1080C07EE90EA33F98D
:101E280022E00232F8EEE77A944267EE877A67EEAC
:101E3800A67A4CED027A07EE90EAF8EEE77A67EEBA
:101E4800877A67EEA67A4CED017AE2D8F9612246E4
:101E5800C847984ED8ED046A0020F9692B1D9FEDFC
:101E68009E7A9FED9E6ADFED9E5A22E0F4EEC67AD6
:101E7800F1EE10FAC0F2C88447F6FE72D1ED017A8D
:101E880045F8202066EEA77AF4EEC77AF1EE10FA4C
:101E980040F2F080F4EEC67AF1EE10FAC0F2D58482
:101EA80047F6FE7243F820200230083184427FF65C
:101EB80039AFD1ED007A66EEA77AF4EEC77AF1EE83
:101EC80010FAD3D83246D9E7002C3FF429AFD8ED21
:101ED8000B6A84469FED787A0022331D8E4656F8A9
:101EE80022100CF1080C07EE901A53F82210023257
:101EF800F8EEE77A944267EE877A67EEA67A4CEDB9
:101F0800027A07EE901AF8EEE77A67EE877A67EEBC
:101F1800A67A4CED017AE2D871462246C7F81CE051
:101F2800C847664ED8ED046A0020F9692B1D9FED5D
:101F38006A7A9FED6A6ADFF894C120E0F4EEC67A07
:101F4800F1EE10FAC0F279843246D1ED017A45F803
:101F5800202066EEA77AF4EEC77AF1EE10FA40F286
:101F68008780F4EEC67AF1EE10FAC0F25E8432464B
:101F780043F820200230083184427FF6D3AED1EDF9
:101F8800007A66EEA77AF4EEC77AF1EE10FAD5D8A1
:101F98006246DAE7002C3FF4C3AED8ED0B6A8646FA
:101FA8009FED477A4FF0000C331D56F82C200EF1A8
:101FB800080E82F40002A2F5000207EE902A53F8F8
:101FC8002C200CF1020CF8EEE77A82F4000264454A
:101FD800A2F5000267EE877A67EEA67A4EED027ADE
:101FE80007EE902AF8EEE77A67EE877A67EEA67A28
:101FF8004EED017AD9D8F9612246C847314ED8ED5D
:10200800046A0020F9692B1D9FED337A9FED336A2E
:10201800DFF8BCC01FE0F4EEC67AF1EE10FAC0F2A9
:10202800FC833246D1ED017A45F8202066EEA77A86
:10203800F4EEC77AF1EE10FA18D9F4EEC67AF1EE9A
:1020480010FAC0F2DA83324643F820200230083111
:1020580084427FF667AED1ED007A66EEA77AF4EE99
:10206800C77AF1EE10FAD6D86246DBE76246EBE7AC
:1020780062467DE7324615E7A100D6466208073179
:1020880021F00701ADEB010DEA46ADEB010D694604
:10209800ADEB0E0D0AEB8200EC46ADEB0E0D01EB3D
:1020A8008202F861E946CCE900A0C9E9001290E68D
:1020B800140C00240280FFFF000000300082FF7F24
:1020C8000000003482FF7F00FC0B0024007E0080AB
:1020D8007E0080FF0000003804FF7FBF04FF7F3FC1
:1020E80000FEFF46002C00F0C982BBF1020FD8F8B1
:1020F800202000F0FA827969C7F8049002EB810E7B
:102108005FED0C5A8A00DCF808100EF104007A61C1
:102118001A46DCF80C303B61331DD7F810903D614E
:10212800FD69C7E902CB8C46834636F92210D8ED03
:102138000B7A06EE101A33F9221006EE901A3EF9C1
:102148002210B8EEC66A07EE101AF8EEE66A3BF9F6
:102158002210B8EEC77A26EE256A66EEA56A27EE43
:10216800257A26EE276A66EEA76A27EE277A07EE13
:10217800901A51080232F8EEE77A0AEB810094428D
:1021880080ED006A05EB810067EEA57AC0ED006A74
:102198000CEB810009EB810180ED007A98ED0B7A58
:1021A80067EE877AC1ED007ABFD8D7F804903D6909
:1021B800D7E902CB60466208BB6949469847D8F818
:1021C80028307A69D8ED046A1A441FED3D7A1FED6C
:1021D8003D6A2B1D904602F1040A5FED3F5A00222A
:1021E800A84ED9E900EC51E0F4EEC67AF1EE10FA07
:1021F800C0F2C78247F6FE7045F822000CEB0100DA
:10220800D0ED007A66EEA77AF4EEC77AF1EE10FA0E
:102218004BD9F4EEC67AF1EE10FAC0F2BA8247F65C
:10222800FE70BBF1020F43F822002BD0D9F808004A
:102238000844D0ED007A66EEA77AF4EEC77AF1EE9C
:1022480010FA36D9F4EEC67AF1EE10FAC0F2CD8261
:1022580047F6FE7048F82200D9F80C000144D1ED89
:10226800007A66EEA77AF4EEC77AF1EE10FA1ED974
:10227800F4EEC67AF1EE10FAC0F2AF8247F6FE71BC
:102288004AF82210023294427FF6B1AD51080EEBA3
:1022980081008900D0ED007A66EEA77AF4EEC77A5D
:1022A800F1EE10FAA0D83046A6E73046B9E7314635
:1022B800E6E73046CEE7002C00F0E081BBF1020FE4
:1022C800D8F8203000F0E1817A69DCF8081003EBD7
:1022D800820EC7F804909300DFED6B5A0EF10400EC
:1022E80000227B61DCF80C303B61331DD7F810907D
:1022F8003D61FD69C7E902CB8C46834656F822103A
:10230800D8ED0B7A07EE101A53F82210B8EEC76A08
:1023180007EE101A5EF82210F8EEC76A07EE101AD8
:1023280026EE256A5BF82210B8EEC77A66EEA56A33
:1023380026EE276A27EE257A66EEA76A27EE277A21
:1023480007EE901A51080232F8EEE77A0AEB81009C
:10235800944280ED006A05EB810067EEA57AC0ED36
:10236800006A0CEB810009EB810180ED007A98EDA1
:102378000B7A67EE877AC1ED007ABFD8D7F8049058
:102388003D69D7E902CB60466208BB694946984770
:10239800D8F828307A69D8ED046A1A449FED3E7A55
:1023A8009FED3E6A131D9246DFF8E4C00022FB61F0
:1023B8002B1D364ED9E9008E4EE0F4EEC67AF1EECA
:1023C80010FAC0F2FC81304645F822000EEB0100FD
:1023D800D0ED007A66EEA77AF4EEC77AF1EE10FA3D
:1023E80049D9F4EEC67AF1EE10FAC0F2EF81304620
:1023F800BBF1020F43F822002AD0D9F8080008449C
:10240800D0ED007A66EEA77AF4EEC77AF1EE10FA0C
:1024180035D9F4EEC67AF1EE10FAC0F2C981304629
:102428004AF82200D9F80C000144D1ED007A66EE92
:10243800A77AF4EEC77AF1EE10FA1ED9F4EEC67A4E
:10244800F1EE10FAC0F2AD813146F86940F8221079
:10245800023294427FF6CBAC510808EB8100890028
:10246800D0ED007A66EEA77AF4EEC77AF1EE10FAAC
:10247800A3D86046A8E76046BAE76146E5E7604644
:10248800CEE700BF0280FFFF000000300082FF7F20
:10249800007E00800000003404FF7FBF04FF7F3F00
:1024A800002C00F0EB807A690021D8F82030C7F8BA
:1024B800109003EB820ED7F81C909300FD610EF18B
:1024C80004021FED0C6A7B61331D154656F8212066
:1024D8004808D8ED0B6ABBF1020F82F40002A2F59E
:1024E800000207EE902A53F8212082F40002B8EE89
:1024F800E77AA2F5000227EE067A07EE902A0AEBA1
:102508008002F8EEE77A27EE267A67EE867A82ED81
:10251800007A09EB80024FEA800067EEA67AC2EDE6
:10252800007A27D05EF8212082F40002A2F500028A
:1025380007EE902A55F8212082F40002B8EEE77AD7
:10254800A2F5000227EE067A07EE902ADCF80820AA
:10255800F8EEE77A024427EE267A67EE867A82ED6D
:10256800007A98ED0B7ADCF80C2067EE877A024443
:10257800C2ED007A02318C42A8D8D7F81090604694
:102588006208BB694946FD699847D8F828307A69D6
:10259800D8ED046A1A441FED407A1FED406A131DF6
:1025A8009246DFF8C4C20022FB612B1DAB4ED9E96D
:1025B800008E4EE0F4EEC67AF1EE10FAC0F2C58055
:1025C800304645F822000EEB0100D0ED007A66EEA9
:1025D800A77AF4EEC77AF1EE10FA49D9F4EEC67A82
:1025E800F1EE10FAC0F2BF803046BBF1020F43F89B
:1025F80022002AD0D9F808000844D0ED007A66EE07
:10260800A77AF4EEC77AF1EE10FA35D9F4EEC67A65
:10261800F1EE10FAC0F2AE8030464AF82200D9F83E
:102628000C000144D1ED007A66EEA77AF4EEC77A81
:10263800F1EE10FA1ED9F4EEC67AF1EE10FAC0F2F5
:102648008B803146F86940F82210023294427FF6B6
:10265800CEAB510808EB81008900D0ED007A66EE18
:10266800A77AF4EEC77AF1EE10FAA3D86046A8E785
:102678006046BAE76146E5E76046CEE72246494646
:102688006046BB699847FFF7B2BBC7F810B0002295
:1026980098ED0B6A331DDFED726AD7F81CB07869C4
:1026A80056F8221007EE901A53F82210B8EEE77A7F
:1026B80007EE901A51080232F8EEE77A27EE267AEA
:1026C8000AEB810E94420BEB810167EEA67A27EEA6
:1026D800067A67EE867A8EED007AC1ED007ADFD849
:1026E8008300D7F810B07B614DE61A46C7F810B0E2
:1026F80098ED0B6A331DDFED5B6AD7F81CB078697B
:1027080036F9221007EE101A33F9221007EE901A44
:10271800B8EEC77A51080232F8EEE77A27EE267A41
:102728000AEB810E94420BEB810167EEA67A27EE45
:10273800067A67EE867A8EED007AC1ED007ADFD8E8
:102748008300D7F810B07B6134E5F0EE675AFEEEEF
:10275800E45A15EE900A34E7F0EE675AFEEEE45AB2
:1027680015EE901A6EE7F0EE675AFEEEE45A15EE93
:10277800900A3AE7F0EE675AFEEEE45A15EE900A30
:102788004BE767EEA57AFDEEE77A17EE900A00B2FE
:1027980032E567EEA57AFDEEE77A17EE900A00B209
:1027A8003FE5F0EE675AFEEEE05A15EE901A4CE659
:1027B800F0EE675AFEEEE05A15EE900A30E6F0EEBB
:1027C800675AFEEEE05A15EE900AFDE5F0EE675AFC
:1027D800FEEEE05A15EE900A0AE667EEA57AFDEEDF
:1027E800E77A17EE901A09B24AE567EEA57AFDEE88
:1027F800E77A17EE900A00B22CE5F0EE675AFEEE83
:10280800E45A15EE902A1FE467EEA57AFDEEE77A02
:1028180017EE902A12B2FFF731BBF0EE675AFEEEC0
:10282800E45A15EE902AFFF7FDBBF0EE675AFEEE6C
:10283800E05A15EE902AFFF79BBBF0EE675AFEEEC2
:10284800E05A15EE902AFFF780BB67EEA57AFDEEF9
:10285800E77A17EE902A12B2FFF724BB82FF7F00B7
:1028680000000030000000387E0080FF30B5154CB5
:10287800154685B0046004F1080C01AB07C98CE863
:102888000700D4ED047AF5EEC07A83E80700F1EE8C
:1028980010FA14DDF7EE006A86EEA77A84ED0B7A5B
:1028A8006DB1204640F8145F02F006FB0649036943
:1028B8000020064AE1616262E36005B030BD012094
:1028C80005B030BDFC0B00240821003008010030A1
:1028D80000680830704700BFB1F5806F03680A468A
:1028E80028BF4FF48062B1F5806F9A6094BF0020D2
:1028F800012070470068143002F014BB30B504683A
:1029080083B008480D46A368626AE1699B0000909D
:1029180004F1140002F0D2FA0020C4E9000503B063
:1029280030BD00BFB91C0008024B0022C3E90522D4
:10293800704700BFFC0B0024B6EE007A437660EEC9
:10294800200A0023F7EE007A016080ED020A60EEAB
:10295800870A0276C0ED047AC36087EEA07A4361E5
:1029680080ED017A704700BFDFED0E7AB6EE007A8F
:10297800F7EE006A4FF0804260EE277A4FF0000CC5
:1029880080ED057A4FF48073016067EE877A80EDF9
:10299800020AC0F80CC0026186EEA77A038380EDB4
:1029A800017A70476F12033B0268037E128807EEB4
:1029B800902AFBEEC87A1BB1B7EE007A77EE677AF9
:1029C800D0ED056A90ED047A77EEE67A437E67EEFD
:1029D800877A0BB1F1EE677A90ED030A90ED017AF0
:1029E80077EEC07AA7EE270A80ED030A704700BF8A
:1029F8000A884FF0000C0280C0F802C001F01EB92E
:102A080010B543790446037101F0F4F900280CBFAE
:102A180001230023637104D12079B0FA80F04009C2
:102A280010BD002010BD00BF704700BF2DE9F04168
:102A3800DFF8808082B0B0241C4E1D4D0027304640
:102A48008DF807400134394601F0E2F901220DF111
:102A58000701284602F0A8FA394630468DF8077073
:102A680001F0D6F901220DF10701284602F09CFA7F
:102A78001023394630468DF8073001F0C9F9012294
:102A88000DF107012846E4B202F08EFA0121304622
:102A980001F0BEF941468022284602F085FAB82C9A
:102AA80008F18008CAD102B0BDE8F08130100024D6
:102AB8002C1000242C0C00242DE9F047C24E0124D0
:102AC8000D460B8882B0DFF8108381463046BF4F31
:102AD8004FF0200A3380B47001F0B0F86B8840469C
:102AE800002588F80240A8F8003001F0A7F8384619
:102AF80002F02EFA2946404601F08AF90A2002F02F
:102B0800D1FA2146404601F083F90A2002F0CAFAB8
:102B1800AE23294630468DF8073001F079F9224670
:102B28000DF10701384602F03FFA294630468DF884
:102B380007A001F06DF922460DF10701384602F0B1
:102B480033FA294630468DF8075001F061F92246DC
:102B58000DF10701384602F027FAB023294630461E
:102B68008DF8073001F054F922460DF10701384677
:102B780002F01AFAC823294630468DF8073001F0CA
:102B880047F922460DF10701384602F00DFA2946A9
:102B980030468DF8075001F03BF922460DF1070148
:102BA800384602F001FA1023294630468DF80730DE
:102BB80001F02EF922460DF10701384602F0F4F92A
:102BC8004023294630468DF8073001F021F9224686
:102BD8000DF10701384602F0E7F98123294630460E
:102BE8008DF8073001F014F922460DF10701384637
:102BF80002F0DAF9FF23294630468DF8073001F054
:102C080007F922460DF10701384602F0CDF9A12354
:102C1800294630468DF8073001F0FAF822460DF1C2
:102C28000701384602F0C0F9A623294630468DF838
:102C3800073001F0EDF822460DF10701384602F0A1
:102C4800B3F9A823294630468DF8073001F0E0F89B
:102C580022460DF10701384602F0A6F93F2329461E
:102C680030468DF8073001F0D3F822460DF1070100
:102C7800384602F099F9A423294630468DF80730E2
:102C880001F0C6F822460DF10701384602F08CF92A
:102C9800D323294630468DF8073001F0B9F822468B
:102CA8000DF10701384602F07FF9294630468DF8C4
:102CB800075001F0ADF822460DF10701384602F041
:102CC80073F9D523294630468DF8073001F0A0F86E
:102CD80022460DF10701384602F066F9F02329462D
:102CE80030468DF8073001F093F822460DF10701C0
:102CF800384602F059F9D923294630468DF807306D
:102D080001F086F822460DF10701384602F04CF929
:102D18002223294630468DF8073001F079F82246FB
:102D28000DF10701384602F03FF9DA23294630460B
:102D38008DF8073001F06CF822460DF1070138468E
:102D480002F032F91223294630468DF8073001F097
:102D58005FF822460DF10701384602F025F9DB231A
:102D6800294630468DF8073001F052F822460DF119
:102D78000701384602F018F9294630468DF807A0B1
:102D880001F046F822460DF10701384602F00CF929
:102D9800AF23304629468DF8073001F039F822462E
:102DA8000DF10701384602F0FFF84FF4806229461A
:102DB80007480BF067F84846FFF738FE054B1D60DB
:102DC8005C7102B0BDE8F087301000242C1000249C
:102DD8002C0C0024341000243C100024024A03491F
:102DE80003480AF07DBA00BF00000024312A000819
:102DF8002C100024DFED197A4B68B4EE670AD1F87D
:102E08000CC010B504460868F1EE10FA2DED028BDF
:102E18006360B0EE608A8B68206084F830200869AF
:102E28000A8BA3604B6984ED070A48BFB0EE670AB6
:102E3800C4ED080AC4F80CC02061636122830AF05B
:102E4800F7FBF0EE407AB0EE480AC4ED097A0AF0D2
:102E5800EFFB84ED0A0ABDEC028B10BD95BFD6339B
:102E680090F8303010B50446032B4BD8DFE803F058
:102E78003B2A1502FFF798FD60EE006AD4ED077A49
:102E880094ED087A26EE800A37EE677AE0EE077A44
:102E9800C4ED0B7AB0EE670A10BDFFF785FD94ED1F
:102EA800097AD4ED0A7A77EEC77AA0EE277AB0EEDF
:102EB800470A0AF04BFBF0EE407A84ED0B0AB0EEBD
:102EC800670A10BDFFF770FDD4ED077A94ED087A14
:102ED80020EE000A37EE677AE0EE077AB0EE670A6E
:102EE800C4ED0B7A10BDFFF75FFDD4ED077A94EDC2
:102EF800087A37EE677AE0EE077AB0EE670AC4ED33
:102F08000B7A10BDD0ED0B7AC4E700BFB7EE007A9C
:102F18000346012282B0C1F307204FF0000CC7EE30
:102F2800007AADF80410C3F80CC04FF0000C98708C
:102F380098181A70597083F803C09A809A71C3ED73
:102F4800027A02B000F07ABE38B544790546837932
:102F58000130640064B2B3B100F04CFFB0FA80F302
:102F68005B092343DBB2A3F17F026B71012A0ED9FF
:102F7800FF2B07D1D5ED037A95ED027A77EE877AA4
:102F8800C5ED037A38BD00F035FF43B2E9E7002309
:102F9800EB6038BD82B04FF0000C0323ADF804108D
:102FA800BDF8042080F810C00280438002B070474A
:102FB80082B0082AADF800304FF00303ADF80410D2
:102FC8004380BDF80410BDF80830BDF800C001808A
:102FD80003811346BDF80C1028BF0823042AA0F863
:102FE80004C08181037406D8022A0AD801D10123BA
:102FF800C38002B070470123C3804381C38102B0FC
:1030080070470123C380438102B070472DE9F04F18
:1030180003700D460023D44CD4498DB04260064657
:103028008B611746C4F82811A4F80931C4F8FD309B
:10303800C4F80131C4F80531C4F80C31C1E90033D2
:10304800C1E90233C1E904333831CDE90133CDE9AF
:103058000333CDE90533CDE90733CDE90933C4E9B5
:103068004433C4E94633C4F82C11C4E9483384F81E
:10307800FC2084F80C324368002B00F0E781EB68F1
:10308800A44628686968AA68ACE80F002B7C8CF80D
:1030980000302B7C84F8FD302B7C002B40F0FB812A
:1030A8007368012B40F29A81D5F81130D5F81D20AC
:1030B800D5F81500D5F81910C4F81130AC4B586084
:1030C8009960DA6095F821201A7495F8213084F80F
:1030D800FE3095F82130002B40F0E1817368022B17
:1030E80040F27C81D5F82230D5F82E20D5F826007C
:1030F800D5F82A10C4F822309E4B58609960DA60DF
:1031080095F832201A7495F8323084F8FF3095F823
:103118003230002B40F0C7817368032B40F25E8188
:10312800D5F83330D5F83F20D5F83700D5F83B101F
:10313800C4F83330904B58609960DA6095F84320B2
:103148001A7495F8433084F8003195F84330002B11
:1031580040F0AD817368042B40F240812B6D686CA0
:10316800A96CEA6CDFF82CC2ACE80F0095F8543073
:103178008CF8003095F8543084F8013195F85430C3
:1031880013B1012384F80C327368052B40F22681B1
:10319800D5F85530D5F86120D5F85900D5F85D1027
:1031A800C4F85530754B58609960DA6095F8652019
:1031B8001A7495F8653084F8023195F8653013B1C2
:1031C800012384F80C327368062B40F20781D5F886
:1031D8006630D5F87220D5F86A00D5F86E10C4F8B4
:1031E8006630674B58609960DA6095F876201A74F3
:1031F80095F8763084F8033195F8763013B10123C9
:1032080084F80C327368072B40F2E880D5F87730E1
:10321800D5F88320D5F87B00D5F87F10C4F877302F
:10322800584B58609960DA6095F887201A7495F8B9
:10323800873084F8043195F88730002B40F0AC8152
:103248007368082B40F2CA80D5F89430D5F8880006
:10325800D5F88C10D5F89020DFF83CC1ACE80F0009
:1032680095F898308CF8003095F8983084F8053146
:1032780095F89830002B40F093817368092B40F241
:10328800AD80D5F89930D5F8A520D5F89D00D5F8AA
:10329800A110C4F899303C4B58609960DA6095F8F1
:1032A800A9201A7495F8A93084F8063195F8A93040
:1032B800002B40F07B8173680A2B40F28F80D5F891
:1032C800AA30D5F8B620D5F8AE00D5F8B210C4F8B3
:1032D800AA302E4B58609960DA6095F8BA201A74B3
:1032E80095F8BA3084F8073195F8BA30002B40F0D9
:1032F800618173680B2B71D9D5F8BB30D5F8C7201D
:10330800D5F8BF00D5F8C310C4F8BB30204B5860BF
:103318009960DA6095F8CB201A7495F8CB3084F868
:10332800083195F8CB30002B40F0488173680C2B9E
:1033380054D9D5F8D830D5F8CC00D5F8D010D5F870
:10334800D420DFF858C0ACE80F0095F8DC308CF8D2
:10335800003095F8DC3084F8093195F8DC30FBB1A1
:10336800012384F80C321BE040100024084100308F
:1033780051100024621000247310002495100024BA
:10338800A6100024B7100024D9100024EA10002445
:10339800FB10002484100024C81000240C11002401
:1033A80073680D2B1AD9D5F8DD30D5F8E920D5F892
:1033B800E100D5F8E510C4F8DD30BB4B58609960E2
:1033C800DA6095F8ED201A7495F8ED3084F80A3132
:1033D80095F8ED3013B1012384F80C324FF48022B4
:1033E800B24808210023FFB2C4F83831C4F8487144
:1033F80084F84431C4E94C020122C4E94F2194F80D
:103408000C12C4E9553399B384F8453184F84C213A
:10341800C4F85C21337800200021C4E958018BB33B
:103428000122013B84F86821C4F878210022C4F8FD
:103438007421082B28D8DFE813F0C500CA00CF0094
:10344800D400D900DE00E300E900F000D7B2C4F8E8
:103458003831964A012184F84431C4F84871C4E9E6
:1034680055334FF48023C4E94C230823C4E94F1390
:10347800012384F84531002384F84C310323C4F830
:103488005C31C7E784F86831894802F071FC03466B
:1034980088B1FFBEFEE7012384F80C3200E6012361
:1034A80084F80C321AE6012384F80C3234E601233E
:1034B80084F80C324EE601A97D48019302F0B6FD6E
:1034C8000546002870D1022240F2FF73CDE9062399
:1034D80000230422CDE9082394F8FC30002B00F0E7
:1034E800D3804FF0060921E0022B00F09D80012BCC
:1034F80040F0C2809AF80130012B00F0BF80002B09
:103508006C4B18BF002304A96948CDE9043902F0BF
:103518005BF8002840F0BD80013594F8FC30EDB22E
:10352800AB4240F2B180644B53F825902FB207EBC1
:10353800071704EB070A504600F080FB05EB05135C
:1035480023441B7C042B7BDC022B00F38F8000F0D0
:103558008B806319002283F8EE20E35D002BC3D132
:103568009AF80130062B00F08380072B00F0888042
:10357800022B00F09080032B00F08F80002B00F0CE
:103588008E80012B00F08D80042B00F0AF80052B7E
:103598004A4B18BF0023B6E7012384F80C324FE6E4
:1035A800012384F80C3268E6FFBEFEE7012384F8A5
:1035B8000C3280E6012384F80C329AE6012384F861
:1035C8000C32B3E603234022C4E95B325CE70723ED
:1035D8006022C4E95B3257E70F238022C4E95B32DB
:1035E80052E71F23A022C4E95B324DE73F23C022E4
:1035F800C4E95B3248E77F23E022C4E95B3243E752
:10360800FF234FF48072C4E95B323DE740F2FF13B9
:103618004FF49072C4E95B3236E740F2FF334FF45F
:10362800A072C4E95B322FE79AF80130042B21D04D
:10363800052B27D05BB3012B214B18BF002362E772
:1036480003233E1D04EB05084FF0000B264488F8C1
:10365800EE3030460BF1010B00F0F0FA98F8EE303E
:1036680004365B45F5DC78E70123EAE70223E8E75F
:10367800144B48E7144B46E7002344E7134B42E753
:10368800134B40E7134B3EE70DB0BDE8F08F124BEC
:1036980039E7FFBEFEE7114B35E7114B33E7114B16
:1036A80031E7114B2FE700BF1D1100240020024015
:1036B800701100240002B02530E100080000B84F66
:1036C8000008302E0800900C1000C0102000F014E4
:1036D8008000501D000180210004002A0040C03AEB
:1036E8000080F03E0000214300005247004B0AE7EB
:1036F8000000844B38B5094C40F2FF724FF00111BD
:1037080004F59875284602F03FFC94F8FC20D4F89C
:1037180028112846BDE8384002F0AAB94010002414
:10372800034B0D29D3F8280198BF00EB41007047DF
:1037380040100024044B0D29D3F82C0198BF00EB4E
:10374800011000EB4200704740100024214B026832
:103758009A4200D07047204B00212048D3F8D82047
:1037680030B542F020021E4C83B0C4F8940104F531
:10377800CA75C4E96D11C3F8D8200922D3F8D83026
:10378800284603F020030193019B94F80C328B42E6
:1037980014BF0B464FF48073C4F8B0310023C4E95A
:1037A800662300224FF48063C4E968234FF4006263
:1037B8004FF40053C4E96A2302F08AFF08B1FFBE40
:1037C800FEE704F59873C4F87C51C4F8CC3103B013
:1037D80030BD00BF002002400044025840000240B3
:1037E80040100024014803F0EBBA00BFD4110024B4
:1037F80002682DE9F84F4C4B9A4201D0BDE8F88F8A
:103808004A4E96F80C32002BF8D096F8FC20002A85
:1038180076D0002406F10C0906F5867506F1FC073A
:10382800A04613E003F0010117F80FBCA9F1080046
:1038380000F0EEFABBF1010F25D896F8FC20013410
:1038480009F111090235A3B29A422BD917F8013FA1
:10385800002BF4D0D6F8283100212A7833F8140048
:10386800D6F82C3103EB041323F812002B8801330C
:103878009BB22B805FFA83FA3A789A42D2D88A466A
:10388800A5F80080D0E7CAF34001A9F1040000F0D0
:10389800BFFABBF1020FCAF38001CED0484600F050
:1038A800B7FACAE796F80C02092200232049002833
:1038B8004FF00000C6F894114FF48061C6E9662302
:1038C8004FF400624FF40053C6E96A2314BF002284
:1038D8004FF48072C6E9680100231648C6E96C23D4
:1038E800C6F8B83102F0F4FE08B1FFBEFEE796F85C
:1038F800FC20D6F828111048BDE8F84F02F0B8B8F7
:10390800092000210A4BC6E9660100204FF48061B6
:10391800C6F89431C6E968014FF400604FF40051CD
:10392800C6E96A01D8E700BF002002404010002421
:1039380040000240D411002470110024704700BFD9
:103948004F4B02689A4200D070474E4BD3F8E810AC
:1039580030B541F000514C4C85B0D4F84821C3F83B
:10396800E810D3F8E81001F0005101910199D3F85B
:10397800E01041F00101C3F8E010D3F8E03003F0A3
:1039880001030293029B32F002033DD0013A012A5F
:103998006BD9D4F84C31012B0AD0002236201146BD
:1039A80002F0B8FB362005B0BDE8304002F0F0BBAD
:1039B800D4F8483133F0020234D0013B012BECD863
:1039C800442240233149324DC4F88C100021284646
:1039D800C4F8B010C4E9242300224FF48063C4E97A
:1039E80026234FF400624FF40053C4E928234FF410
:1039F80080724FF48033C4E92A2302F069FE80B94B
:103A0800E560C4F8C440C8E74FF48062032303A804
:103A1800ADF80C208DF80E3000F010F9D4F84821DC
:103A2800B4E7FEE71B4BA2634322636140231A4DB0
:103A3800C4E9062300224FF480632846C4E908231A
:103A48004FF400624FF40053C4E90A234FF4807224
:103A58004FF48033C4E90C2302F03AFE20B9D4F8BD
:103A68004831A560E464A8E7FEE74FF4A0620323A9
:103A780003A8ADF80C208DF80E3000F0DFF888E7C9
:103A880000740040004402585012002428040240E8
:103A9800DC1200241004024064120024014803F0E0
:103AA8008FB900BF64120024014803F089B900BF30
:103AB800DC12002410B5054C204602F055FC04F534
:103AC8008270BDE8104008F063BC00BF50120024AB
:103AD80030B58C463A4C3B4D8DB0046004F5A27E5F
:103AE800BCE80F00AEE80F00DCF800302046256087
:103AF800CEF8003002F0DAFB0023D4F84C510393DF
:103B0800C5B11622012D049217D00022D4F8541101
:103B1800D4F848319142CDE9062218BF0222059215
:103B280033F0020235D0013B012B3CD90025284651
:103B38000DB030BD02230493E7E7234A0093C4F88D
:103B48000C31C4F81431C4F80421C4F81C31CDE98F
:103B5800013301F009FCD4F844314BF68032C4F843
:103B68000851002B08BF1346B0FBF3F304F582702D
:103B7800C4F8103108F08AFA0028D8D1202302901E
:103B8800694604F58270009308F0BAFC0028BCD09E
:103B9800CDE703A90A4802F01BFC78B9D4F84831EC
:103BA800013B012BC2D8102203A9054802F010FCE2
:103BB800051E18BF012528460DB030BD0125B6E702
:103BC8005012002400740040001000402DE9F0411C
:103BD8000668D6F84C5105BBD6F850310C46174646
:103BE800002B0CBF4FF008084FF0000831F002031B
:103BF80005D0013C012C14D92846BDE8F0811346B4
:103C0800294642463046013C02F094FB294630469C
:103C180002F062FB012CEFD803E001252846BDE83D
:103C2800F0813B4642461021304602F083FB1021CA
:103C3800304602F051FB2846BDE8F08130B5837864
:103C48008FB00446022B37D0032B33D0012B31D051
:103C580000230A93E378012B2AD0022B28D00023D3
:103C68000B93002320460C9301F0D0FB0546204619
:103C780001F0D4FB23780990082B13D8DFE803F070
:103C88001F3245586B7E91A40500594BD3F8E020AC
:103C980042F48072C3F8E020D3F8E03003F4807374
:103CA8000893089B09A9284603F0DCFB0FB030BD38
:103CB8000B93D6E70A93CDE711230A93CAE74C4B37
:103CC80009A92846D3F8E02042F00102C3F8E02011
:103CD800D3F8E03003F001030093009B03F0C2FB2C
:103CE8000FB030BD424B09A92846D3F8E02042F076
:103CF8000202C3F8E020D3F8E03003F00203019396
:103D0800019B03F0AFFB0FB030BD394B09A9284622
:103D1800D3F8E02042F00402C3F8E020D3F8E03002
:103D280003F004030293029B03F09CFB0FB030BD29
:103D38002F4B09A92846D3F8E02042F00802C3F81F
:103D4800E020D3F8E03003F008030393039B03F06B
:103D580089FB0FB030BD264B09A92846D3F8E020CF
:103D680042F01002C3F8E020D3F8E03003F010036B
:103D78000493049B03F076FB0FB030BD1C4B09A9DC
:103D88002846D3F8E02042F02002C3F8E020D3F818
:103D9800E03003F020030593059B03F063FB0FB0AD
:103DA80030BD134B09A92846D3F8E02042F0400261
:103DB800C3F8E020D3F8E03003F040030693069BF5
:103DC80003F050FB0FB030BD094B09A92846D3F8C2
:103DD800E02042F08002C3F8E020D3F8E03003F09E
:103DE80080030793079B03F03DFB0FB030BD00BF76
:103DF8000044025838B5054601F008FB0446284639
:103E080001F00CFB01462046BDE8384003F032BD06
:103E180070B506460D4601F0F9FA0446304601F041
:103E2800FDFA2A1E0146204618BF0122BDE870404F
:103E380003F026BD2DE9F04704460E46174698467E
:103E480000F18405284604F0FDFE2028FAD12168F7
:103E5800234B0129E36006D002293ED0002939D03E
:103E68000120BDE8F087242323614023002004F1CA
:103E78000C0A63614FF48063A0612063E361C4E9C5
:103E88000800C4E90A00C4E90E00504602F020FC0C
:103E9800814608B1FFBEFEE77100656494F90060D1
:103EA8002846C4F8BCA03A460E4C4346089D89B241
:103EB80026700D4E099F35600C4D2F6003F0C0FE33
:103EC8000028CED0FF230120C6F80090C5F8009046
:103ED8002370C6E722232361C7E74A232361C4E787
:103EE800A0000240F8130024B8130024FC13002497
:103EF8000023122270B586B0CDE90223049303682B
:103F0800032B01D804230593061D841D304601F0B8
:103F18007DFA0546304601F081FA034601A9284694
:103F2800019303F09FFA204601F070FA03462046F9
:103F38001C4601F073FA01A903462046019303F0D9
:103F480091FA06B070BD00BF634A0368934210B58A
:103F58008CB028D0614A934258D0614A934200F00D
:103F68009480604A934201D00CB010BD5E4C5F480B
:103F7800D4F8E03043F00203C4F8E030D4F8E0307D
:103F880003F002030A930A9BFFF7B2FFD4F8F43058
:103F980043F08003C4F8F430D4F8F43003F080031D
:103FA8000B930B9BE0E7504C5148D4F8E03043F0BA
:103FB8000203C4F8E030D4F8E03003F002030193C0
:103FC800019BFFF795FFD4F8E83000221F2043F447
:103FD80000131146C4F8E830D4F8E83003F40013AD
:103FE8000293029BD4F8D83043F00103C4F8D830C8
:103FF800D4F8D83003F001030393039B02F08AF846
:104008001F200CB0BDE8104002F0C2B8364C394849
:10401800D4F8E03043F08003C4F8E030D4F8E0305E
:1040280003F080030493049BD4F8E03043F00203C8
:10403800C4F8E030D4F8E03003F002030593059BA0
:10404800FFF756FFD4F8E8300022212043F480031C
:104058001146C4F8E830D4F8E83003F48003069336
:10406800069BD4F8D83043F00103C4F8D830D4F80C
:10407800D83003F001030793079B02F04BF8212087
:104088000CB0BDE8104002F083B81B48FFF730FFC2
:10409800154B00224820D3F8E840114644F40004A8
:1040A800C3F8E840D3F8E84004F400040894089CF6
:1040B800D3F8D84044F00104C3F8D840D3F8D83036
:1040C80003F001030993099B02F024F848200CB07F
:1040D800BDE8104002F05CB80054004000580040B1
:1040E800005C0040001C0058004402587016002470
:1040F80000140024D0140024A01500240B4A002327
:104108000B494FF0FF0C136081F800C053619362B4
:10411800C2E90133C2E90333C2E90633C2E908330D
:10412800C2E90B33C2E90D33704700BFBC1300244A
:10413800F8130024064B1A78120600D570471B782E
:10414800D02204485BB202FB03000C3002F038BEF8
:10415800F813002400140024014803F02BBE00BF0C
:1041680084140024014803F025BE00BF5415002420
:10417800014803F01FBE00BF24160024164AFF2181
:10418800F0B5136883B0154C217023B10021144891
:1041980011600068984723781B0614D5114F002535
:1041A800114E3C4662683046D03642B123690193CD
:1041B800E368009323892188FFF73CFE28B1013585
:1041C8001434032DEED103B0F0BD05EB850507EBE4
:1041D80085056860F7E700BFB8130024F8130024CA
:1041E800FC130024BC13002400140024F0B583B091
:1041F800164C03F0FBFB164AFF21136821702BB104
:1042080000211448116001210068984723781B0693
:1042180014D5114F0025114E3C4662683046D03601
:1042280042B123690193E368009323892188FFF74A
:1042380001FE28B101351434032DEED103B0F0BDD1
:1042480005EB850507EB85056860F7E7F81300249B
:10425800B8130024FC130024BC1300240014002409
:10426800F0B50F68D025324C85B007FB05F5032F54
:1042780004EB050606602BDC2E4B0DF1100E07C96A
:10428800944686E807000FCB0EE90F000EEB870374
:10429800BCF1010F53F8103CC6F884303ED0BCF195
:1042A800020F31D0BCF1000F24D08435D023002276
:1042B800012103FB07432544C3E923212846C3F80A
:1042C800A420C3E92522C3E9272203F08FFB10B1FC
:1042D800012005B0F0BD0146284604F0B7FC0028CF
:1042E800F6D10146284604F0DBFC003818BF01204F
:1042F80005B0F0BD01F036F80F4B98420CBF0F4BDC
:104308000F4BC6F88830D0E701F02CF80A4B9842DA
:104318000CBF0C4B0C4BC6F88830C6E701F022F8EE
:10432800054B98420CBF094B094BC6F88830BCE7CF
:1043380000140024BCE00008000E27075F439060CB
:104348008A62E030200BA0101A0980102D0FB030BF
:104358003211D02000687047F0B5046883B00D466C
:1043680016461F468434204604F06CFC2028FAD1F7
:1043780069002046089C3B46324689B2009403F007
:104388008BFB003818BF012003B0F0BD00682DE991
:10439800F041046886B0032CDDE90CC628D0DFF8AC
:1043A800608098F8008018F0800F1AD1029204EB10
:1043B8008404124A0DF1040ECDF810C002EB840CEF
:1043C800002401940394ADF80410ADF80C30BEE855
:1043D8000F00ACE80F002046CCF8006006B0BDE83E
:1043E800F081CDE90CC606B0BDE8F041FFF722BD6B
:1043F8000124204606B0BDE8F08100BFBC130024AC
:10440800F8130024000000002DE9F04FC84C0346C3
:104418002DED048B2046ABB023655D781E7804F043
:10442800BFFDE0B9012D4FF00107C24A14BF4FF498
:1044380080134FF40003E0602260C4E9017793FA27
:10444800A3F3B3FA83F34FF48078013BC4F81480E4
:10445800C4E907002046236104F036FD28B1012095
:104468002BB0BDEC048BBDE8F08F662313901B9036
:1044780041F288320EA90E93CDE91480CDE91600D9
:10448800CDE91900204604F0A9FD0028E7D19923B9
:1044980041F288320EA920460E9304F09FFD0028B1
:1044A800DDD14FF0050A4FF08079249041F288332E
:1044B800219008AA29901CA9CDF870A0CDF8949055
:1044C8009FED917B9FED929B9FED938BCDE9228091
:1044D800CDE9270020468DED087B8DED0A9B8DEDFB
:1044E8000C8B04F0E7FE0028B9D11897ADF8080046
:1044F80013901B90CDE91480CDE91609CDE9190078
:10450800002D00F0BA80F023ADF80830C02341F246
:1045180088320EA986480E9304F060FD00289ED1CB
:1045280041F28832824802A904F0C2FD002896D1DF
:104538004FF480744FF005084FF080754FF0000A73
:104548004FF0010B2190299041F2883308AA1CA949
:104558002294CDF8708025959FED6D9B9FED6E8B15
:10456800CDE92300CDE927007148CDE908AB8DEDF1
:104578000A9B8DED0C8B04F09DFE00287FF46FAF35
:10458800012706238DF8070041F2883213901CA9F1
:104598001B90219029900E971C93CDE91440CDE9EA
:1045A8001605CDE91900CDE92240CDE92400CDE971
:1045B80027005F4804F012FD00287FF450AF41F255
:1045C800883308AA1CA95A48CDF8708025959FED14
:1045D800547B8DED0A9B8DED0C8B8DED087B04F0E3
:1045E80069FE00287FF43BAF41F288320EA950489B
:1045F80004F0F4FC00287FF432AF402341F2883203
:104608000DF107014A488DF8073004F051FD0028E4
:104618007FF425AF02AA41F288330EA94448CDF8A9
:10462800388017959FED407B8DED049B8DED068BB3
:104638008DED027B04F03EFE00287FF410AF219040
:1046480008AA299041F288331CA92294CDF87080D9
:104658002595CDE92300CDE927003548CDE908ABFC
:104668008DED0A9B8DED0C8B04F024FE00287FF461
:10467800F6AE002E60D00020F2E6612341F28832C7
:104688000EA920460E9304F0A9FC00287FF4E7AE9B
:1046980041F2883202A9204604F088FD00287FF400
:1046A800DEAEBDF8083041F2883221901CA923F013
:1046B8007803299043F04003ADF808300623CDE98C
:1046C8002280CDE92400CDE9270020461C9304F080
:1046D80085FC00287FF4C3AE20460225022441F25F
:1046E800883308AA1CA9CDF870A0CDF894908DED58
:1046F8000A9B8DED0C8BCDE9084504F0DBFD002805
:104708003FF404AFABE600BF00000000010000006A
:104718001000000001000000000000000000400040
:1047280002000000020000004000000040000000FD
:104738004017002400500052EB204FF480740023EF
:1047480000251C904FF4005022944FF440641F90B1
:10475800A02020930EAA23944FF4404427931CA929
:1047680028934FF080531E90062024940024299308
:104778004FF04073219005482593CDE90E4504F08C
:1047880011FE003818BF01206AE600BF4017002458
:104798003E4B02682DE9F0479A428CB04FF0000575
:1047A800CDE90755CDE909550B9502D00CB0BDE808
:1047B800F087374B0226374905AFD3F8D420B146E6
:1047C800DFF8D4A04FF0030842F48042C3F8D420A5
:1047D800D3F8D42002F480420092009AD3F8E02063
:1047E80042F04002C3F8E020D3F8E02002F0400293
:1047F8000192019AD3F8E02042F02002C3F8E020A9
:10480800D3F8E02002F020020292029AD3F8E020C6
:1048180042F01002C3F8E020D3F8E02002F01002C2
:104828000392039AD3F8E02042F00202C3F8E02092
:10483800D3F8E03003F002030493049B03C9059006
:10484800ADF81810DAF8504034440236204600F02B
:10485800DDFD034620461C4600F0E0FD17F8013B4D
:1048680007A907902046CDE90895CDE90A8302F00B
:10487800F9FD0E2EE6D100225C20114601F04AFC1B
:104888005C2001F085FC0CB0BDE8F08700500052B8
:104898000044025870E1000840170024124B0268D7
:1048A8009A4200D07047114AD2F8D43070B523F438
:1048B800804302250E4EC2F8D430346D2C440235A4
:1048C800204600F0A3FD034620461C4600F0A6FD46
:1048D8000146204602F006FF0E2DEED15C20BDE811
:1048E800704001F063BC00BF005000520044025801
:1048F80040170024014804F0E1BD00BF4017002420
:1049080038B5036871B9026A00F1280500F5AC747E
:10491800012A0CBF002140218BBB1D4B5722C0F838
:1049280058310DE0426A00F1C00500F5E874012A2B
:104938000CBF00214021EBB1164B5A22C0F8D031F0
:1049480000232046C4E901214FF480524FF48061CE
:10495800636262614FF48042C4E903314FF48073AB
:10496800C4E906234FF40033236201F0B1FE58B1C5
:10497800FFBEFEE7084B5822C0F8D031E0E7074BEE
:104988005922C0F85831DBE7C5E92044A56338BD92
:104998001000024070000240280002405800024007
:1049A8002DE9F043821D05468BB0031D05F10A0170
:1049B8000830CDE9052305F10C02AB69CDE9070103
:1049C8000992002B3DD0EB69B3FA83F84FEA5818E7
:1049D8000123022205AE0AAF4FF006090393CDE981
:1049E800012356F8044B2B792278934216D02B6872
:1049F800F3B1012B02D1F2B10A230493204600F04F
:104A08000DFD03462046009300F000FD694602F0C4
:104A180029FDBE42E5D10BB0BDE8F0836979637822
:104A28009942E4D1B8F1000FF3D02B68002BE0D104
:104A3800CDF81090E2E76378022B14BF0A2308230D
:104A4800DBE74FF00108C3E7534A0368934230B5E8
:104A580005468BB055D02032934252D04F4A9342EC
:104A680004D02032934201D00BB030BD4C4C4D489D
:104A7800D4F8E03043F00103C4F8E030D4F8E03073
:104A880003F001030593059BD4F8E03043F00803D5
:104A9800C4F8E030D4F8E03003F008030693069B2E
:104AA800D4F8E03043F04003C4F8E030D4F8E03004
:104AB80003F040030793079BD4F8F03043F4000356
:104AC800C4F8F030D4F8F03003F400030893089BDE
:104AD800FFF766FFD4F8D830296843F001032F4A5E
:104AE8003048C4F8D830891AD4F8D83018BF012112
:104AF80003F001030993099B0BB0BDE83040FFF7B1
:104B0800FFBE274C2848D4F8E03043F00103C4F82E
:104B1800E030D4F8E03003F001030093009BD4F8B0
:104B2800E03043F01003C4F8E030D4F8E03003F08C
:104B380010030193019BD4F8E03043F04003C4F81C
:104B4800E030D4F8E03003F040030293029BD4F83D
:104B5800F03043F48003C4F8F030D4F8F03003F4B4
:104B680080030393039BFFF71BFFD4F8D830296811
:104B780043F00103084A0C48C4F8D830891AD4F81D
:104B8800D83018BF012103F001030493049B0BB034
:104B9800BDE83040FFF7B4BE04580140045C014052
:104BA80000440258F019002494170024014802F028
:104BB80007B900BFEC180024014802F001B900BF92
:104BC80064190024014802F0FBB800BF481B002408
:104BD800014802F0F5B800BFC01B00241A4A036858
:104BE800934210B40BD02032934208D0174A934214
:104BF80016D02032934213D05DF8044B7047144B03
:104C08000022D3F85442C3F85822002CF4D0D3F829
:104C18004802D3E9931223465DF8044B520818471B
:104C28000B4B0022D3F8B044C3F8B424002CE3D0D3
:104C3800D3F8AC24D3F8A814D3F8A4045208234614
:104C48005DF8044B184700BF04580140045C01405C
:104C580094170024184A0368934210B40BD02032EA
:104C6800934208D0154A934217D02032934214D069
:104C78005DF8044B7047124BD3E994245208C3F8EB
:104C88005822002CF4D0D3E99201234601EB82018B
:104C980000EB82005DF8044B1847094BD3F8AC24AD
:104CA800D3F8B0445208C3F8B424002CE0D0D3F8A9
:104CB800A814D3F8A404E8E704580140045C0140B0
:104CC80094170024000000002DE9F04F0C684FF401
:104CD8001776754F87B004FB06F6012C07EB060A1A
:104CE800C0F800A000F3A0800D468E464FF00008E3
:104CF800D44669A3D3E9002369A1D1E90001CDE92C
:104D0800022306ABCAF8508203EB8403CDE9040101
:104D180053F810BC53F8083CCAE992880193BEE8DE
:104D28000F00ACE80F00BEE80F00ACE80F00019BD5
:104D38009EE80300CAF828B0CAF8C0308CE803001F
:104D48002B69042B0CD8DFE803F0737D87910300EF
:104D58004FF41773554A03FB04739A64C3F8E020B1
:104D6800AA692B6A002A43D0002B4FF4177308BF97
:104D7800022203FB047318BF0322DA6201221A63BA
:104D8800EA696B6A002A40D1191E4FF4177318BFDD
:104D9800012103FB0473C3E931126B69022B05D8A7
:104DA800434A12F80380434A52F823904FF417738A
:104DB80006F128004246494603FB047400233844A0
:104DC80063646363E365C4F8DC30C4F8CC30C4F8CA
:104DD800F430C4E90F33C4E91533C4E93533C4E901
:104DE8003B33022306F0FAFB002849D0FFBEFEE75A
:104DF800191E4FF4177318BF012103FB0473C3E98D
:104E08000B12EA696B6A002ABED0002B4FF41773A5
:104E180008BF022203FB047318BF0322C3F8C4208F
:104E28000122C3F8C820B8E7012007B0BDE8F08F19
:104E38004FF417734FF4FA5203FB04739A64C3F8E0
:104E4800E0208DE74FF417734FF47A5203FB047395
:104E58009A64C3F8E02083E74FF417734FF4FA42DB
:104E680003FB04739A64C3F8E02079E74FF41773DF
:104E78004BF6803203FB04739A64C3F8E0206FE7B3
:104E880006F1C000022342464946384406F0A6FB14
:104E98000028CAD0FFBEFEE704580140045C014068
:104EA80024580140245C0140941700240077010035
:104EB80078E100087CE100080068704770B5046874
:104EC80082B015460E46C4F85032C4E99212069ACA
:104ED800C4F85422226A012A9AB211D0294604F150
:104EE8002800019206F036FC636A019A012B10D063
:104EF800294604F1C00006F02DFC002002B070BD68
:104F080004F12800019206F0B7FC636A019A012BAC
:104F1800EED1314604F1C00006F0AEFC002002B02C
:104F280070BD00BF03681B69042B05D8044A02EB57
:104F3800830393ED000A70479FED020A704700BF94
:104F480088E1000800803B470368D3F8580270479F
:104F580010B513484FF00052124C4FF48001002353
:104F6800826104604FF4003441600721C2614FF050
:104F78008042036143618460C160C0E90833C0E9CD
:104F88000A33C0E90D23C0E90F33C0E91133C0E982
:104F98001333C0E9153306F041FE00B1FFBE10BD62
:104FA8004C1C0024003001406423024892B206F0F1
:104FB800E3BE00BF4C1C0024304A0023016810B532
:104FC800914288B0CDE903330593CDE9063301D08A
:104FD80008B010BD2A4B0446D3F8F02042F48052A2
:104FE800C3F8F020D3F8F02002F480520092009A1F
:104FF800D3F8E02042F00202C3F8E020D3F8E02022
:1050080002F002020192019AD3F8E02042F0400235
:10501800C3F8E020D3F8E030826803F04003B2F52B
:10502800003F0293029B26D0B2F5802F20D1102397
:1050380003930222052303A912480492079302F05E
:1050480011FAA3694FF40062B3F1806F039202D0A2
:105058004FF44063039300230522022403A90A485E
:10506800CDE90443CDE9063202F0FCF908B010BDE1
:1050780030230393DDE720230393DAE70030014070
:10508800004402580004025800180258704700BF34
:1050980008B500F023FABDE8084001F003B900BFE5
:1050A800704700BF00F02CBA0146014807F0DEBB8C
:1050B800D41C00242DE9F041CEB004464C22002136
:1050C8000AA808F0DFFE2022002102A808F0DAFE74
:1050D800BC2200211EA808F0D5FE022003F00CFE19
:1050E8002368012B4FF0000354D0534A0225019343
:1050F800C820D16A514B21F00101D162D26A02F075
:10510800010201929A6942F440429A619B6903F450
:1051180040430193019B494A93699B04FCD5484944
:105128000224002201268B6A04274FF0080823F086
:10513800030323438B62052316900AA818934FF4A0
:1051480080331096179419941597CDF86880CDE997
:105158001B222122CDE91344CDE90A2304F0B6FA33
:1051680000B1FEE73F220323294602A8CDE9022326
:1051780000220823CDE9042340224023CDE9062359
:1051880040234FF48062CDE9082304F0CDFD0346A7
:10519800B8B1FEE7294A04250093F0209169264B0F
:1051A80041F440419161926902F440420092DA6A06
:1051B80042F00102DA62DB6A03F001030093009B0C
:1051C800A9E720224FF4805125934FF440152B92E4
:1051D80080222D931EA83093269135914FF480712B
:1051E800249234920C223394439140F22711209256
:1051F8001022CDF884802A971F96CDE92E34CDE968
:105208003B334FF48033CDE9224631930024469353
:105218000623CDE93E4527934FF48063094C2C9330
:105228001E94CDE9281204F0DBFF00B1FEE703F07D
:1052380089FD4EB0BDE8F0810004005800480258CE
:105248000044025809130F032DE9F04104460D46A6
:1052580084B001264FF480774FF00008D1E90001AF
:1052680084E8030000F00AF92046FFF723FF00F066
:10527800C7FF4FF040536846ADF800600193364BC6
:105288000397029300F0DAFF4FF040431922684673
:105298008DF80F6001938DF80820ADF80D708DF82A
:1052A80001608DF80A8000F0C9FF042000F0B6FF05
:1052B80007F0E4FAFEF722FF2B791BBB6B799BB151
:1052C800BFF34F8FBFF36F8F244B0022C3F85022D8
:1052D800BFF34F8FBFF36F8F5A6942F400325A61A0
:1052E800BFF34F8FBFF36F8F0022002369461C481E
:1052F800CDE9002307F04EFA194807F0ADFA04B0DB
:10530800BDE8F081154CC4F88480BFF34F8FD4F802
:10531800803043F6E071C3F3C906C3F34E334FEA56
:10532800431C0CEA0100334640EA8372013BC4F88F
:1053380060225A1CF8D1ACF1200C1CF1200FF0D1DE
:10534800BFF34F8F636943F480336361BFF34F8FBB
:10535800BFF36F8FB2E700BF0E00010300ED00E05E
:10536800D41C002404F010BE04F02ABE0348002315
:10537800034A0449036007F0B3BF00BFD41C0024EC
:10538800000000249550000810B41A4C00221A4B53
:10539800D4F88810194841F47001C4F888101968C5
:1053A800174C41F0010119601A6119680840154944
:1053B80018609A61DA611A629A62DA621A635A6349
:1053C8009A63DA631A645A64186820F480201860B3
:1053D8001A6623681940B1F1005F03D20A4B012213
:1053E800C3F80821034B4FF000625DF8044B9A6044
:1053F800704700BF00ED00E0004402587FEDF6EA78
:105408000010005C0000FFFF00800051024B027892
:1054180053F82200704700BFCCE10008024B4278E5
:1054280033F81200704700BFACE10008704700BFB6
:105438000F4B1B780BB90120704710B504464FF489
:105448007A700C4AB0FBF3F31068B0FBF3F000F08D
:10545800C1FE0F2C00D808B1012010BD0022214642
:105468004FF0FF3000F056FE034B00201C6010BDCB
:10547800B8000024B0000024BC00002438B5032084
:10548800124D00F035FE124C04F0AEFB114A1249E1
:105498009369C3F30323CB5C03F01F0320FA03F3E0
:1054A8000F202B60926902F00F028A5C02F01F0243
:1054B800D3402360FFF7BCFF10B10124204638BD5C
:1054C8000446FFF7B3FF204638BD00BFB0000024F4
:1054D800B4000024004402589CE10008034A044B2D
:1054E80011681B780B441360704700BFD81C002458
:1054F800B8000024014B1868704700BFD81C00246E
:1055080038B50446FFF7F6FF0546631C02D0044B86
:105518001B781C44FFF7EEFF431BA342FAD338BDA8
:10552800B8000024014B1868000C70470010005C9C
:10553800704700BF806B08B5FFF7FAFF08BD00BFD2
:10554800836B5A6D12F0500F5A6D10B51DD1196842
:1055580042F400725A650A6812F0080FCA681BD034
:1055680012F4406F0DD1CA6894040AD45A6D22F41B
:1055780080725A655A6DD10403D45A6D42F0010203
:105588005A651846FEF734F910BDD2060AD4DB6C0A
:10559800BDE81040DB6C18479007E7D01846FEF7C7
:1055A80027F9F1E71846FEF7C9F910BD806B08B571
:1055B800436D43F040034365836D43F00403836503
:1055C800FEF7BCF908BD00BFF0B5002283B0019218
:1055D80090F85020012A00F01C81034601201A6827
:1055E80083F850009468640700F18A800C68C4F35B
:1055F8001305002D40F08F80C4F38464A0404D68EB
:105608004FF01F0ED6694FEA951C30430CF00C0C76
:10561800D06105F01F0002F1300584400EFA00FE4B
:105628005CF8050020EA0E0004434CF80540906839
:1056380040076ED4956815F0080547D10C68072017
:1056480002F11406B94F4FEAD45CC4F304540CF0C9
:10565800040C00FA04FE886800FA04F45CF80600FA
:1056680020EA0E0020434CF80600386800F070402D
:10567800B0F1805F00F0C580D068D668C70600F139
:10568800E880C6F382064869760000FA06F60F69D4
:10569800042F00F0C18002F16004086854F827C0A4
:1056A80000F0F8400CF0004C40EA0C00304344F89D
:1056B8002700487E0E69012854F8260008BF4FF0DD
:1056C800004520F00040054344F826509068C40780
:1056D80014D4CE68086806F01807954CD2F8C05064
:1056E800FC40C0F31307044025EA07052C43C2F821
:1056F800C040904CA64246D0002816DB002003E0AC
:105708005A6D42F020025A65002283F8502003B0F7
:10571800F0BD9068DAE794FAA4F5B5FA85F5C4F314
:10572800846405F01F05A84069E783498A4200F0B0
:10573800B68001F580718A4200F0B1807F4D804CBF
:10574800A968A46801F0E076E44304F00104002CA1
:1057580000F0B4807B4CA04200F0FC807A4CA04260
:1057680000F01A81794CA042C8D14902C6D47449C4
:105778008A42C3D1AA68002022F0E072324342F480
:105788008002AA60C0E7002F6AD090FAA0F4B4FAA9
:1057980084F4013404F01F04092C00F2A48090FA68
:1057A800A0F4B4FA84F490FAA0F5B5FA85F50134BA
:1057B80001260135A40605F01F0504F0F84406FA91
:1057C80005F52C4390FAA0F0B0FA80F0304400F0D0
:1057D8001F0000EB400000052043C60D02F1140530
:1057E800C0F30450072406F0040604FA00F77459BD
:1057F80024EA07048F6807FA00F02043705108680C
:105808007AE7D6684869C6F38206760000FA06F693
:105818003DE7022003B0F0BD106E0C6800F0F840C0
:10582800A506B0EB846F30D0506E00F0F84085428A
:1058380026D0906E00F0F84085422BD0D06E00F054
:10584800F84085427FF442AFD06E20F00040D06629
:105858003CE77608486906F0080600FA06F616E7F7
:10586800800E441C04F01F06092E2DD8A406012022
:1058780004F0F844B040044306EB46000005ABE7EB
:10588800506E20F000405066D3E7106E20F00040C4
:105898001066C9E7906E20F000409066CEE7264C6F
:1058A8002B4D04F58074A96854F8F86CA468344347
:1058B80001F0E076E44304F0010448E75A6D012062
:1058C80042F020025A651FE706EB4600A5060124B0
:1058D8001E3805F0F84504FA06F60005354340F091
:1058E8000070284379E790FAA0F5B5FA85F590FAA3
:1058F800A0F4B4FA84F4013501260134AD0604F0AD
:105908001F0405F0F84506FA04F4254390FAA0F4BC
:10591800B4FA84F4344404F01F0404EB4404A4F1FE
:105928001E00000540F00070DBE700BF0010005CBF
:10593800FFFF0F000000FF470020024000630258ED
:1059480000600258000084CB000052C70000B8CFA6
:105958000023024008023FF5D1AE17498A427FF47E
:10596800CDAE164AA9681268154821F0E07192096F
:105978003143A0FB020241F400019209A9605200E0
:105988000192019A002A3FF4B9AE019A013A0192B4
:10599800019A002AF9D1B1E611F080707FF4AEAE19
:1059A80005498A427FF4AAAEAA6822F0E07232431F
:1059B80042F08072AA60A7E600600258B000002496
:1059C800632D3E0503689A68D20701D50020704709
:1059D8009968214A114270B5044608D0636D0120C8
:1059E80043F010036365A36D0343A36570BD996815
:1059F8001A4A0A4042F001029A60FFF77BFD2368C9
:105A0800174A054693421ED002F5807293421AD077
:105A1800144A9268114E0AE09A68324042F0010234
:105A28009A60FFF767FD401B0228D7D823681A68D9
:105A3800D2070FD49A68D107EED5FFF75BFD401B5C
:105A48000228F3D9CAE7084A9268D006E2D0074A82
:105A58009342DFD1002070BD3F000080C0FFFF7F70
:105A68000020024000630258002302400021024047
:105A78002DE9F0413A4D044600680F461646A84203
:105A880019D0384B984216D0374DAB68806842071A
:105A980016D494F85020012A12D003F01F080122CE
:105AA800B8F1090F84F850200DD90023012084F89B
:105AB8005030BDE8F0812D4DAB6880684207E8D5CD
:105AC8000220BDE8F08140F2212323FA08F3DB43EA
