:020000040800F2
:10000000000002205506000851060008914E000825
:1000100051060008510600085106000800000000C3
:100020000000000000000000000000005106000871
:10003000510600080000000051060008814E00082B
:100040005106000851060008510600085106000834
:100050005106000851060008510600085106000824
:100060005106000851060008510600089D49000885
:10007000A9490008E5370008B5490008C14900084A
:1000800051060008553F00085106000851060008B7
:1000900051060008510600085106000851060008E4
:1000A00051060008510600085106000851060008D4
:1000B000510600085106000851060008793F000863
:1000C00051060008853F0008510600085106000847
:1000D00051060008510600085106000851060008A4
:1000E00051060008510600080000000051060008F3
:1000F0005106000851060008510600085106000884
:100100005106000851060008510600085106000873
:100110005106000851060008510600085106000863
:100120005106000851060008510600085106000853
:100130005106000851060008510600085106000843
:1001400000000000000000000000000000000000AF
:100150005106000851060008510600085106000823
:10016000913F00085106000851060008510600089A
:100170005106000851060008510600085106000803
:1001800051060008510600085106000851060008F3
:1001900051060008510600085106000851060008E3
:1001A00051060008510600085106000851060008D3
:1001B00015470008510600085106000851060008BE
:1001C00051060008510600085106000851060008B3
:1001D00051060008510600085106000851060008A3
:1001E0005106000851060008510600085106000893
:1001F0005106000851060008510600085106000883
:100200005106000851060008510600085106000872
:100210005106000851060008510600085106000862
:1002200051060008510600085106000800000000B1
:1002300051060008510600080000000051060008A1
:100240005106000851060008510600085106000832
:100250005106000851060008510600085106000822
:100260005106000851060008510600085106000812
:100270005106000851060008510600080000000061
:100280005106000851060008510600080000000051
:08029000000000005106000807
:1002980010B5054C237833B9044B13B10448AFF3B8
:1002A80000800123237010BD2801002400000000F5
:1002B80000E2000808B5034B1BB103490348AFF33C
:1002C800008008BD000000002C01002400E20008A6
:1002D80081F0004102E000BF83F0004330B54FEAEF
:1002E80041044FEA430594EA050F08BF90EA020F5C
:1002F8001FBF54EA000C55EA020C7FEA645C7FEAEF
:10030800655C00F0E2804FEA5454D4EB5555B8BF11
:100318006D420CDD2C4480EA020281EA030382EA82
:10032800000083EA010180EA020281EA0303362D14
:1003380088BF30BD11F0004F4FEA01314FF4801CE7
:100348004CEA113102D0404261EB410113F0004FF9
:100358004FEA03334CEA133302D0524263EB4303B0
:1003680094EA050F00F0A780A4F10104D5F1200E4E
:100378000DDB02FA0EFC22FA05F2801841F10001A9
:1003880003FA0EF2801843FA05F359410EE0A5F17D
:1003980020050EF1200E012A03FA0EFC28BF4CF0AE
:1003A800020C43FA05F3C01851EBE37101F0004564
:1003B80007D54FF0000EDCF1000C7EEB00006EEB71
:1003C8000101B1F5801F1BD3B1F5001F0CD34908FB
:1003D8005FEA30004FEA3C0C04F101044FEA445252
:1003E80012F5800F80F09A80BCF1004F08BF5FEAD9
:1003F800500C50F1000041EB045141EA050130BDB9
:100408005FEA4C0C404141EB0101013C28BFB1F5CA
:10041800801FE9D291F0000F04BF01460020B1FA15
:1004280081F308BF2033A3F10B03B3F120020CDAE8
:100438000C3208DD02F1140CC2F10C0201FA0CF0C6
:1004480021FA02F10CE002F11402D8BFC2F1200C2B
:1004580001FA02F120FA0CFCDCBF41EA0C019040E1
:10046800E41AA2BF01EB0451294330BD6FEA04042A
:100478001F3C1CDA0C340EDC04F11404C4F1200215
:1004880020FA04F001FA02F340EA030021FA04F327
:1004980045EA030130BDC4F10C04C4F1200220FA7E
:1004A80002F001FA04F340EA0300294630BD21FABC
:1004B80004F0294630BD94F0000F83F4801306BF82
:1004C80081F480110134013D4EE77FEA645C18BF76
:1004D8007FEA655C29D094EA050F08BF90EA020F0D
:1004E80005D054EA000C04BF1946104630BD91EA05
:1004F800030F1EBF0021002030BD5FEA545C05D108
:100508004000494128BF41F0004130BD14F5800446
:100518003CBF01F5801130BD01F0004545F0FE41BA
:1005280041F470014FF0000030BD7FEA645C1ABFEF
:10053800194610467FEA655C1CBF0B46024650EA26
:10054800013406BF52EA033591EA030F41F4002152
:1005580030BD00BF90F0000F04BF0021704730B5D8
:100568004FF4806404F132044FF000054FF00001AD
:1005780050E700BF90F0000F04BF0021704730B56E
:100588004FF4806404F1320410F0004548BF404243
:100598004FF000013EE700BF42004FEAE2014FEA98
:1005A80031014FEA02701FBF12F07F4393F07F4F73
:1005B80081F06051704732F07F4208BF704793F076
:1005C8007F4F04BF41F40021704730B54FF4607489
:1005D80001F0004521F000411CE700BF50EA01028C
:1005E80008BF704730B54FF000050AE050EA010235
:1005F80008BF704730B511F0004502D5404261EBA5
:1006080041014FF4806404F132045FEA915C3FF4E5
:10061800D8AE4FF003025FEADC0C18BF03325FEA82
:10062800DC0C18BF033202EBDC02C2F1200300FA33
:1006380003FC20FA02F001FA03FE40EA0E0021FA58
:1006480002F11444BDE600BFFEE700BF0B480C4AA8
:10065800904203D0121A0B490DF08AF90A480B4A46
:10066800904203D0121A00210DF090F904F07AFD9F
:100678000DF05AF900F0E2F9FEE700BF000000248F
:10068800280100241CE2000828010024301D002451
:10069800704700BF704700BF704700BF704700BF7A
:1006A80001234FF07E5C05480549064AC0F800C0A2
:1006B80081F8343082F83430704700BF280C0024A9
:1006C800B80A0024E8010024012307484FF07E51AE
:1006D800064A10B4064C80F86C3084F86C305160CF
:1006E8005DF8044B704700BFB80A0024280C0024AA
:1006F800E80100244FF07E5203490120034B81F8A2
:10070800A4009A60704700BFE8010024280C002468
:10071800012307484FF07E51064A10B4064C80F872
:10072800DC3084F8DC30D1605DF8044B704700BFE2
:10073800B80A0024280C0024E801002401230748F3
:100748004FF07E51064A10B4064C80F8143184F8F4
:10075800143111615DF8044B704700BFB80A0024DA
:10076800280C0024E8010024704700BF704700BF30
:10077800704700BF704700BF704700BF10B5037DCA
:1007880082B0044601335BB2012B037503DDFF23FE
:10079800037502B010BD816803EB831203440A4459
:1007A800197B0A4B41F0400101900093412303F06B
:1007B800F9FC0028EDD0204603F0D8FC014620467D
:1007C80002B0BDE8104003F057BC00BF8507000821
:1007D8002DE9F84F694D6A486A4C6B4E6B4F04F12E
:1007E800C80ADFF8EC912DED068BB0EE408A02F0D6
:1007F80033FB674885ED000A02F02EFB654885ED5E
:10080800010A02F029FB644885ED020A02F024FB84
:10081800624885ED030A02F01FFB614885ED060A70
:1008280002F01AFBF7EE007A5E4B012285ED070A0B
:1008380087EE88AA5C4DC3ED007A5A60C3ED027A50
:10084800DA60C3ED047A5A61F6EE009ADFED578A52
:100858004FF000082046C4ED028AB0EE680A84ED25
:10086800038AB7EE009A84ED04AAC4ED019AC4F88D
:1008780014800CF03BF9F0EE407A01230022C4ED1D
:10088800028A20462270B0EE680A84F8253028349F
:1008980004F8043C44ED047A0CF028F9F0EE407AB0
:1008A800304604ED099AB0EE480ADFF828B144ED65
:1008B800047A3836DFED3E8A0BF0BCFD2846B0EEF0
:1008C800480A46F830BC383546ED0B8A06ED089ADA
:1008D80046F8248C0BF0AEFD364B3846B0EE480A8D
:1008E80045F830BC45F8183C45ED0B8A05ED089AEB
:1008F80045F8248C0BF092FED9F8003038461837AA
:1009080047F80C3C0BF0A6FE54459DD1B0EE480AC2
:1009180029482A4D0CF0F6F8B0EE690A26480CF082
:10092800E7F99FED270A24480CF06CF9B0EE480A65
:100938002846244C0CF0E6F89FED230A28460CF0D4
:1009480061F9B0EE490A28460CF0D2F9B0EE480A2F
:10095800204685ED039A0CF0D5F8B0EE690A2046DA
:100968000CF0C6F99FED190A20460CF04BF984EDFE
:10097800039ABDEC068BBDE8F88F00BF0C08002475
:10098800CC09002468080024E8010024500700244A
:10099800640900249809002430090024340A00243A
:1009A800000A002450080024B80A00240000C842A5
:1009B800CDCC4C3E000048C200030024C8070024E8
:1009C8000000FA45D00B00240000A04200007A4441
:1009D800A80000240AD7233C10B5124C94F86532BD
:1009E8007F2B05D1104A114B127853F822309847C3
:1009F80094F875327F2B00D010BD0D48D0ED007AE9
:100A0800F5EE407AF1EE10FA05D09FED0A0ABDE83E
:100A180010400BF079BE084BBDE8104093ED000A7A
:100A28000BF072BE440300244C0800240400002488
:100A3800180C002400000000AC00002430B5002190
:100A48005548564D2DED028B89B000F0F3FB524806
:100A580000F0B6FDA5F52070F0EE408A01AC00F07C
:100A6800B1FDF7EE000AB0EE408A9FED4D0A0FCDBA
:100A78000FC495E8070084E80700012201A9494846
:100A880002F0B4F905F10C0C0DF1040EF7EE000AB2
:100A98009FED430ABCE80F00AEE80F009CE8070092
:100AA80084E80700002201A93F4802F09FF905F1F8
:100AB800280C0DF1040EF7EE000A9FED390ABCE888
:100AC8000F00AEE80F009CE8070084E8070000224A
:100AD80001A9364802F08AF905F1440C0DF1040E1B
:100AE800F7EE000A9FED2E0ABCE80F00AEE80F00F3
:100AF8009CE8070084E80700002201A92C4802F0BE
:100B080075F905F1980C0DF1040EF3EE040AB0EE38
:100B1800000ABCE80F00AEE80F009CE8070084E874
:100B28000700022201A9234802F060F905F1B40C7C
:100B38000DF1040EF1EE020AB6EE000ABCE80F0051
:100B4800AEE80F009CE8070084E80700002201A92E
:100B5800194802F04BF9B0EE680AFFF739FEF0EEDB
:100B6800480AB0EE080A15480BF0A2FD0021A022A1
:100B780013480CF00BFF134B0022A5F52470C3E9B2
:100B88000022C3E902221A6100F01EFD0E49A5F5F4
:100B9800247000F013FDFEE744030024C40500247C
:100BA80000000000CC0900246409002498090024EE
:100BB80030090024340A0024000A0024180C0024F8
:100BC800440100240C080024210F000870B51148C6
:100BD8000BF080FDE0B1104D0024104E2A7806EB92
:100BE80044130F49013202F00F029B5C2A7013B1C3
:100BF80051F8243098470134052C09D02A7806EB9F
:100C0800441307499B5C002BF2D10134052CF5D124
:100C180070BD00BF180C0024E40100244401002426
:100C2800040000242DE9F041DFF8308182B000246F
:100C3800424E434D434F2FE0434A444B127803EB57
:100C48004213195D00293DD0414BB2212B6058F861
:100C5800043F07EB4101FA6C40F6FE7CC3F3071032
:100C680003F00F03B1F85EE000EB8010E64500EBFF
:100C780083031344B3F80110C1F30B010EEB010019
:100C8800C0F30B00A3F8030001D941F480510134EB
:100C9800A3F80110102C18D021462A4800F07AFD3C
:100CA80040B1294A294B127803EB42131A5D82F0AE
:100CB80001021A553378A342BED14FF07E53FF216B
:100CC8002B60C4E700232B60C1E7396D0023C7E917
:100CD800131202EB830401EB83000133B4F80340E1
:100CE800102BA0F80340F4D1002302EB830401EB9E
:100CF80083000133B4F84440102BA0F84440F4D1E9
:100D0800144C0023144897F854100090204687F894
:100D18005C3041F040014123019403F043FA10B9DB
:100D280002B0BDE8F081204603F020FA01462046D3
:100D380002B0BDE8F04103F09FB900BFE401002410
:100D4800140C0024440300244C080024440100240B
:100D58003333333F8C030024850700081400002434
:100D68002DE9F0475848594C02F076F8584884ED78
:100D7800000A02F071F8574884ED010A02F06CF895
:100D88005548564D84ED020A02F066F8544884ED41
:100D9800030A02F061F85348534E84ED060A02F044
:100DA8005BF829782046514A002306EB011184EDAF
:100DB800070AF0EC016A03F1010CB2EC017A36EE95
:100DC800C77A9FED3F5BB0EEC77AB7EEC77AB4EE4D
:100DD800C57BF1EE10FA05DD032B42ED016A98BFE1
:100DE800C1ED006A5FFA8CF30431082BE1D13E4B68
:100DF800DFF81491DFF814A103F15007DFF8108130
:100E080049463B4AD4464046D3ED016A1033BCEC10
:100E1800017A3832F0EC017A383153F810EC9F42FD
:100E2800E6EE877A41F820EC42ED0B7AECD196EDAC
:100E3800026A9AED007AD8ED007A2E4FE6EE077A2C
:100E4800DFF8D080D6ED046A98ED017A97ED010AB3
:100E58002948A6EE870AC9ED037A0BF0D3FE96ED72
:100E6800060A25480BF044FFD8ED027A96ED087A79
:100E780097ED020A2148A7EE270A0BF0C3FE96ED6C
:100E88000A0A1E480BF034FF1D4894ED060AD0EDFF
:100E9800007A1C4BF5EE407A83ED000AF1EE10FA69
:100EA8000AD1D4ED077AFBFE677AFCEEE77A17EEF3
:100EB800903A2B70BDE8F0870BF026FCF1E700BFF5
:100EC8007B14AE47E17A743FCC0900242C08002437
:100ED8006409002498090024300900244C080024DF
:100EE800340A0024000A0024680A00240C0800249C
:100EF800E801002494000024D00B002400030024FF
:100F0800180C0024AC000024B80A0024580000245F
:100F1800800000246C0000242DE9F04F2DED088B93
:100F280087B014460D46FFF751FE6B4800F06EFB84
:100F3800694800F04DFBFFF74FFDFFF711FFFFF782
:100F480071FE002C00F0BF80601E2B460022634C0F
:100F58004108DFF8C0B1DFF8C0A1614F614EDFF88A
:100F6800A491DFF8A881604D03916048CDE9013272
:100F78000BF078FA5E48F0EE40BA0BF073FA5D4871
:100F8800B0EE40BA0BF06EFA5B48B0EE40AA0BF038
:100F980069FA44F2A71C6168DFED587AF0EE40AABE
:100FA8000CFB01F1E068D4ED008A07EE101A0CFB87
:100FB80000F06160B8EEC77A6169D4ED046A0CFB91
:100FC80001F194ED020A27EE277AE060616167EE8D
:100FD800288A07EE100A4A48B8EEC79A07EE101A90
:100FE800F8EEC79A29EE279A69EEA79A29EE009A91
:100FF80069EEA69A0BF036FA9BED007ADAED007AE4
:101008003748E7EE007AB0EE670AC7ED027A0BF0D0
:101018006DFD6AEE0A7A96ED037A314867EE877AB3
:1010280087ED060AC7ED017A0BF07EFBB7EEE87A8A
:101038003448B7EECA6AB7EEC05A2BEE899A9FEDCC
:10104800244B29EE2B0A27EE047B27EE067BA6EE1F
:10105800075BB0EE458B0BF071FDD9F830102A48CC
:10106800049104A90BF0E6FA96ED07AA274820EEAA
:101078000A9A2BEE290A0BF061FDD8F8341024489F
:10108800059105A90BF0D6FAB7EEC88BD6ED0B7A09
:101098000021019BAAEE098A029A20EE270A0398EA
:1010A8000833904202F10102A7EE808A03ED028A1A
:1010B80003ED018AC3ED00AA29606960A960E960AF
:1010C80029617FF452AF07B0BDEC088BBDE8F08F03
:1010D800FCA9F1D24D62503F44030024500800247B
:1010E80068080024680A0024280C00242002002430
:1010F80058020024E8010024900200240000003077
:10110800B80A0024D00B0024680700240003002438
:10111800800700246C0000249400002470B52F4C34
:1011280000252F4922462F480BF05EFE22462C4907
:101138002D480BF059FE224629492C480BF054FE45
:10114800224627492A482B4E0BF04EFE22462449B8
:1011580029480BF049FE2246214928480BF044FE55
:1011680027494FF4007206F15E007561B5640CF012
:10117800FFFB2246234930460BF036FE2246224921
:1011880028460BF031FE2246204928460BF02CFE5B
:1011980022461F4928460BF027FE22461D492846AD
:1011A8000BF022FE22461C491C480BF01DFE22466D
:1011B80019491B480BF018FE2246174919480BF02D
:1011C80013FE2246184928460BF00EFE2246174900
:1011D8001748BDE870400BF007BE00BF00000024B0
:1011E800A1060008CC0900246409002498090024F9
:1011F8003009002444030024000A0024340A00248F
:10120800A4D90008A5060008710700087D07000892
:1012180081070008750700089906000800030024E4
:10122800D00B0024C8070024790700089D06000891
:10123800180C00242DE9F04304462DED028BAFB0C5
:10124800039100F0BDFA0399204600F061FB3021BC
:1012580020460CAE00F0FEFAD24B18AD0DAF93E865
:1012680003000C9020468DF834101E2100F0D4FAAB
:1012780003462046ADF8603000F008FB189904F5E5
:10128800187001F03FFE1D21204600F0C5FA034604
:101298002046ADF8603000F0F9FA189904F51C7092
:1012A80001F030FE16F8011B204600F0B5FA03469F
:1012B80028461135ADF81030049901F067FEBE429A
:1012C800F0D11021204600F0A7FA03461521204648
:1012D800ADF8143000F0A0FA03461421204604F1BA
:1012E8001807ADF8183000F097FA03461321204686
:1012F8000FAEADF81C3000F08FFABDF81C2004F5D5
:101308002075069B0DF15C080599ADF800200822B0
:10131800ADF80400ADF8200029A801F045FE04232B
:10132800052218A938469FEDA08A01F06BFEDFF868
:1013380088E20DF1400CBEE80F00ACE80F009EE813
:101348000F008CE80F0056F8042F04213846D2B25B
:1013580002F0ECF901462046039100F097FA0023C9
:101368002846F0EE480A03991A461C3501F0E0FABF
:10137800B045E8D104F558760025E9B2384602F0C0
:10138800CBF9014601352046039100F07FFA30463B
:10139800039901F0E5FA042D06F11C06EDD11C2194
:1013A800204600F039FA03461B212046ADF83830B4
:1013B80000F032FA03461A2120460125ADF83A30EA
:1013C80000F02AFA0346BDF838200E980027ADF839
:1013D8003C30BDF83C30A4F8E623A4F8E853C4F840
:1013E800D00304F2E630A4F8D43302F033FBBDF89E
:1013F8003A3004F2EA30A4F8EC53A4F8EA3304F1E2
:10140800480502F027FBBDF83C3004F2EE30A4F8A2
:10141800F073A4F8EE3302F01DFB09212046C4F84E
:10142800D673C4F8DA73C4F8DE73C4F8E27300F054
:10143800F3F90B230AA9ADF8280004F13C00ADF834
:101448002A3001F035FB59490BA8594E0B9702F089
:1014580013FE0B9B39464FF0060EC4E9123606F10F
:1014680084032365534B6365FF2384F85C3000E0F5
:10147800E66C0A1101F00F008B00013102EB8212B9
:101488009BB2202906F802E002EB8000D4E913762B
:1014980007EB000CACF80130ACF8033006F802E0BA
:1014A800226D0244A2F80130A2F80330E0D194F88A
:1014B80056300B2B0FD0B4F85620012304F15800F6
:1014C800A4F85820A4F85A30039002F0C3FA002177
:1014D800039802F0A9FB04F1540704F156094FF0F0
:1014E800000817F8011B0126022309AA41F0400150
:1014F800284600960391ADF8248002F039FE1420A6
:1015080003F0C4FC022309AA039928460096ADF803
:10151800248002F02DFE142003F0B8FC4FF4005391
:1015280009AA0399ADF8243028460223009602F050
:101538001FFE142003F0AAFC43F20163039909AAD1
:10154800ADF82430052328460093022302F010FE4C
:101558004F45C6D10021204600F05EF9034609A98F
:1015680004F14100ADF8243001F03EFA0F21204685
:10157800A4F83F6000F050F9034604F13D001BB2A7
:10158800C3F3072284F83D3084F83E2002F062FA63
:10159800032104F1200002F0CFF92FB0BDEC028B3B
:1015A800BDE8F083E4DB00086F12033BECDB0008C6
:1015B8000000003000020B00A4DB000800F042B974
:1015C80000F044B900F062B9183002F08FB800BFDB
:1015D80070B5064600F5207400F5587520461C3491
:1015E80001F0DEF9AC42F9D1204601F0D9F906F54F
:1015F8005F7001F0D5F906F5667001F0D1F906F5CE
:101608006D70BDE8704001F0CBB900BF2DE9F04125
:10161800044600F5187001F093FC04F2E63504F274
:10162800EA3704F51C7004F2D63801F089FC002171
:1016380028462E4602F0F8FA0121384602F0F4FA5C
:10164800012003F025FC384604F2EE37002102F0B1
:10165800EBFA0021284602F0E7FA012003F018FC13
:10166800384602F0D3FA00384FF0010118BF0120C4
:1016780006F8010D284602F0D7FA012003F008FC0D
:101688004645E6D194F8F93394F8D62394F8F8034C
:1016980042EA430294F8D73394F8F71343EA400335
:1016A80094F8D80394F8F65340EA410084F8F923F3
:1016B80094F8D91394F8F52384F8F83341EA4501EE
:1016C80094F8DA3394F8F35343EA420394F8F47342
:1016D80094F8DB2384F8F70384F8F61342EA470208
:1016E80094F8F21394F8DC0384F8F53394F8DD33B6
:1016F80040EA450094F8016443EA410394F8005431
:1017080094F8DE1384F8F42384F8F30341EA4601DD
:1017180094F8FF0394F8DF2384F8F23394F8E03365
:1017280042EA450284F8011443EA400384F800249D
:1017380004F1410084F8FF3394F8FE1394F8E12390
:1017480094F8FD3342EA410294F8E21394F8FC63FA
:1017580041EA430194F8E33394F8FB5343EA460320
:1017680084F8FE2384F8FD1394F8E42394F8FA131C
:1017780084F8FC3342EA450294F8E53384F8FB2305
:1017880043EA410384F8FA3301F036F984F808048F
:10179800BDE8F081014491F8F203A0F18000B0FAAD
:1017A80080F04009704700BF044B06221A7083F886
:1017B800412083F8842083F8C5207047000000305A
:1017C80011490123114A4FF4A06C80F82930A0F880
:1017D80024C080F82D30C0E9001202F18172062180
:1017E8000532017440F20271C260094AA0F827105C
:1017F800026240F6066210B4064CA0F82B20846002
:101808005DF8044B704700BF000705000105080597
:1018180000010004090507051F2982B009D8084BF3
:1018280003EB410213F81130507843EA002002B06C
:10183800704701230C2043EA002002B0704700BF24
:10184800F8DB0008143001F055B800BF143001F07F
:101858004DB800BF38B500F1140504462DED028BD4
:10186800284601F035F8284601F040F82846B0EE41
:10187800408A01F029F8D0ED007AF8EE677A88EE10
:10188800277ABDEC028B84ED0E7A38BD90ED0E0AF6
:10189800704700BF0000000030B5032491B0012557
:1018A800194900234FF44172089106A9ADF8242084
:1018B80002939FED137BCDE90A45144D044602A817
:1018C8008DED0C7B8DED0E7BCDE9063503F0F0F840
:1018D80040F601333025ADF80430019800F056F891
:1018E80003214FF07E53029A04F114000593CDE9C9
:1018F800035103A900F0B6FF11B030BDAFF300806B
:1019080000000000010000000405040604020404AD
:1019180030B504462DED028B83B089B3012240F225
:1019280001130092ADF80430694604F1300003F069
:101938007BFB204600F04CF8E01C02F071FC04F13F
:10194800270002F087F804F1140504F12B0002F0D7
:1019580081F82046FFF7A0FF284600F0C7FF284679
:10196800B0EE408A00F0B0FFD0ED007AF8EE677A6A
:1019780088EE277A84ED0E7A03B0BDEC028B30BD79
:1019880040F201130091ADF80430CDE710B584B0F2
:1019980003460124ADF8040003A8ADF80C30ADF8F7
:1019A8000E4002F057F8214603A802F03DF9204600
:1019B80003F06CFA002103A802F036F9204603F080
:1019C80065FA214603A802F02FF904B010BD00BF44
:1019D800F0B53F4C8BB0A06303781BB100252846B7
:1019E8000BB0F0BD0022079301233A49201D616026
:1019F8000321C4E902230822202306910A21C4E90D
:101A0800042340224FF4C073089102A9C4E90623B5
:101A180000224FF40063C4E908234FF480520023E6
:101A2800C4E90A2302220723CDE90223042208235A
:101A3800CDE9042309F088FE0546002844D1102387
:101A480001220126002702A90190201DCDE90223C9
:101A58004FF48052CDE9046709F0A0FE642003F03A
:101A68003DFC02A94FF48052201DCDE904670226EF
:101A78001027CDE9026709F091FE0322102302A97D
:101A8800201DCDE9022300230422CDE904234FF4CD
:101A9800805209F083FE40F23223042202A9019306
:101AA8001023201DCDE90223019A012305924FF44A
:101AB8008052049309F072FE40F60601201D09F0D9
:101AC8008DFE28460BB0F0BD012528460BB0F0BDB1
:101AD800400C0024404100526A4A00232DE9F0439B
:101AE80015688FB00A9315B10FB0BDE8F083664B47
:101AF80001210C244FF0030811600026D3F8D420EC
:101B08000327624842F48052DFF89891C3F8D42042
:101B1800D3F8D42002F480520092009AD3F8E0203F
:101B280042F01002C3F8E020D3F8E02002F01002DF
:101B38000192019AD3F8E02042F04002C3F8E02075
:101B4800D3F8E02002F040020292029AD3F8E02093
:101B580042F00802C3F8E020D3F8E02002F00802BF
:101B68000392039AD3F8E02042F48072C3F8E0208D
:101B7800D3F8E02002F480720492049AD3F8E020AB
:101B880042F08002C3F8E020D3F8E02002F080029F
:101B98000592059AD3F8E02042F02002C3F8E0202D
:101BA800D3F8E02002F020020692069AD3F8E0204B
:101BB80042F00402C3F8E0204FF68372D3F8E03015
:101BC8000C9403F00403CDF82C80079302230799A3
:101BD80008A9CDE9082305F0B5FA48F2371202231F
:101BE80008A92B480C94CDE90823CDE90A6705F02C
:101BF800A9FA4CF20372022308A926480C94CDE9ED
:101C08000823CDE90A6705F09DFA40F2FF62022336
:101C180008A921480C94CDE90823CDE90A6705F005
:101C280091FA4FF60C72022308A91C480C94CDE9CE
:101C38000823CDE90A6705F085FA4FF63F0202232B
:101C480008A917480C94CDE90823CDE90A6705F0DF
:101C580079FAD9F83800013003F0C6FAD9F83830E3
:101C68000646581C03F0C8FA0223089008A9304613
:101C78000A950993CDE90B8405F064FA0FB0BDE825
:101C8800F08300BF3C0C00240044025800100258A6
:101C980000180258000C025800200258001C025874
:101CA80000140258400C00242DE9F04FDFF810848E
:101CB80006460D46144608F114002DED028B89B036
:101CC80000AF02F0EDFFD8F8143073B3D8F818302D
:101CD800D8F80490002B43690BBF4FF0080A4FF067
:101CE800100A4FF0020B4FF0040BB9F1000F2AD085
:101CF800A200EA46012B02F1070222F00702ADEB2F
:101D0800020D6846ADEB020D694600F03F81022BDB
:101D180000F0D680002B6FD02246C847D54624371E
:101D2800BD46BDEC028BBDE8F08FD8F81830002B0B
:101D3800F5D0D8F804904FF0080A4FF0020B436929
:101D4800B9F1000FD4D1FB61D8F80030BB61002B8A
:101D5800E5D0D54802F0ECFF6B46BBF1020F786185
:101D680008EE103AFB6900F083816A465146A2EBFF
:101D7800C40295466200EA46B2FBFBF2AAEBC40035
:101D880085460AEB8200EE46F861ADEB010DF86975
:101D98000EEB820CC7F810C0EC46ADEB010D00EB62
:101DA8008201CCF80400CCF8081001EB82013869F4
:101DB800E946CCF80C1000EB8201CCF800A001EB4E
:101DC8008202C9E900E0C9E90212012B00F064832C
:101DD800022B00F06C82002B00F0808162084946DB
:101DE8006046BB69984718EE103A24379D46BD46B1
:101DF800BDEC028BBDE8F08F002C8DD01A46D8EDD3
:101E08000B6A9FEDB27A8446331D36F922E00CF155
:101E1800080C07EE90EA33F922E00232F8EEE77A8E
:101E2800944267EE877A67EEA67A4CED027A07EE5F
:101E380090EAF8EEE77A67EE877A67EEA67A4CEDD5
:101E4800017AE2D8F9612246C847984ED8ED046A6B
:101E58000020F9692B1D9FED9E7A9FED9E6ADFEDAC
:101E68009E5A22E0F4EEC67AF1EE10FAC0F2C88467
:101E780047F6FE72D1ED017A45F8202066EEA77A82
:101E8800F4EEC77AF1EE10FA40F2F080F4EEC67A7A
:101E9800F1EE10FAC0F2D58447F6FE7243F820201E
:101EA8000230083184427FF639AFD1ED007A66EE10
:101EB800A77AF4EEC77AF1EE10FAD3D83246D9E70A
:101EC800002C3FF429AFD8ED0B6A84469FED787A51
:101ED8000022331D8E4656F822100CF1080C07EE2E
:101EE800901A53F822100232F8EEE77A944267EE1D
:101EF800877A67EEA67A4CED027A07EE901AF8EE2A
:101F0800E77A67EE877A67EEA67A4CED017AE2D82F
:101F180071462246C7F81CE0C847664ED8ED046AE9
:101F28000020F9692B1D9FED6A7A9FED6A6ADFF838
:101F380094C120E0F4EEC67AF1EE10FAC0F279848A
:101F48003246D1ED017A45F8202066EEA77AF4EE04
:101F5800C77AF1EE10FA40F28780F4EEC67AF1EE15
:101F680010FAC0F25E84324643F82020023008316D
:101F780084427FF6D3AED1ED007A66EEA77AF4EE0E
:101F8800C77AF1EE10FAD5D86246DAE7002C3FF4AA
:101F9800C3AED8ED0B6A86469FED477A4FF0000C2A
:101FA800331D56F82C200EF1080E82F40002A2F51B
:101FB800000207EE902A53F82C200CF1020CF8EEE0
:101FC800E77A82F400026445A2F5000267EE877A98
:101FD80067EEA67A4EED027A07EE902AF8EEE77AD7
:101FE80067EE877A67EEA67A4EED017AD9D8F9615D
:101FF8002246C847314ED8ED046A0020F9692B1DE6
:102008009FED337A9FED336ADFF8BCC01FE0F4EE32
:10201800C67AF1EE10FAC0F2FC833246D1ED017AAD
:1020280045F8202066EEA77AF4EEC77AF1EE10FAAA
:1020380018D9F4EEC67AF1EE10FAC0F2DA83324615
:1020480043F820200230083184427FF667AED1ED94
:10205800007A66EEA77AF4EEC77AF1EE10FAD6D8CF
:102068006246DBE76246EBE762467DE7324615E704
:10207800A100D6466208073121F00701ADEB010D3A
:10208800EA46ADEB010D6946ADEB0E0D0AEB820099
:10209800EC46ADEB0E0D01EB8202F861E946CCE9A6
:1020A80000A0C9E9001290E6940C00240280FFFF0A
:1020B800000000300082FF7F0000003482FF7F00B4
:1020C8007C0C0024007E00807E0080FF0000003829
:1020D80004FF7FBF04FF7F3F00FEFF46002C00F097
:1020E800C982BBF1020FD8F8202000F0FA82796982
:1020F800C7F8049002EB810E5FED0C5A8A00DCF8F9
:1021080008100EF104007A611A46DCF80C303B61C5
:10211800331DD7F810903D61FD69C7E902CB8C46A5
:10212800834636F92210D8ED0B7A06EE101A33F9E9
:10213800221006EE901A3EF92210B8EEC66A07EE93
:10214800101AF8EEE66A3BF92210B8EEC77A26EEC6
:10215800256A66EEA56A27EE257A26EE276A66EED8
:10216800A76A27EE277A07EE901A51080232F8EE8E
:10217800E77A0AEB8100944280ED006A05EB810062
:1021880067EEA57AC0ED006A0CEB810009EB8101CE
:1021980080ED007A98ED0B7A67EE877AC1ED007AC8
:1021A800BFD8D7F804903D69D7E902CB60466208EA
:1021B800BB6949469847D8F828307A69D8ED046A47
:1021C8001A441FED3D7A1FED3D6A2B1D904602F122
:1021D800040A5FED3F5A0022A84ED9E900EC51E00D
:1021E800F4EEC67AF1EE10FAC0F2C78247F6FE7036
:1021F80045F822000CEB0100D0ED007A66EEA77AD4
:10220800F4EEC77AF1EE10FA4BD9F4EEC67AF1EE95
:1022180010FAC0F2BA8247F6FE70BBF1020F43F81B
:1022280022002BD0D9F808000844D0ED007A66EED9
:10223800A77AF4EEC77AF1EE10FA36D9F4EEC67A38
:10224800F1EE10FAC0F2CD8247F6FE7048F822008F
:10225800D9F80C000144D1ED007A66EEA77AF4EEC5
:10226800C77AF1EE10FA1ED9F4EEC67AF1EE10FA3A
:10227800C0F2AF8247F6FE714AF822100232944249
:102288007FF6B1AD51080EEB81008900D0ED007AE0
:1022980066EEA77AF4EEC77AF1EE10FAA0D83046C7
:1022A800A6E73046B9E73146E6E73046CEE7002CE8
:1022B80000F0E081BBF1020FD8F8203000F0E18196
:1022C8007A69DCF8081003EB820EC7F804909300D3
:1022D800DFED6B5A0EF1040000227B61DCF80C3054
:1022E8003B61331DD7F810903D61FD69C7E902CB0A
:1022F8008C46834656F82210D8ED0B7A07EE101A52
:1023080053F82210B8EEC76A07EE101A5EF82210CA
:10231800F8EEC76A07EE101A26EE256A5BF8221057
:10232800B8EEC77A66EEA56A26EE276A27EE257A02
:1023380066EEA76A27EE277A07EE901A510802324E
:10234800F8EEE77A0AEB8100944280ED006A05EB2B
:10235800810067EEA57AC0ED006A0CEB810009EBFD
:10236800810180ED007A98ED0B7A67EE877AC1EDEE
:10237800007ABFD8D7F804903D69D7E902CB604608
:102388006208BB6949469847D8F828307A69D8ED79
:10239800046A1A449FED3E7A9FED3E6A131D9246E9
:1023A800DFF8E4C00022FB612B1D364ED9E9008E10
:1023B8004EE0F4EEC67AF1EE10FAC0F2FC81304637
:1023C80045F822000EEB0100D0ED007A66EEA77A00
:1023D800F4EEC77AF1EE10FA49D9F4EEC67AF1EEC6
:1023E80010FAC0F2EF813046BBF1020F43F8220029
:1023F8002AD0D9F808000844D0ED007A66EEA77A0A
:10240800F4EEC77AF1EE10FA35D9F4EEC67AF1EEA9
:1024180010FAC0F2C98130464AF82200D9F80C00F7
:102428000144D1ED007A66EEA77AF4EEC77AF1EEB0
:1024380010FA1ED9F4EEC67AF1EE10FAC0F2AD81A8
:102448003146F86940F82210023294427FF6CBAC4C
:10245800510808EB81008900D0ED007A66EEA77A72
:10246800F4EEC77AF1EE10FAA3D86046A8E7604602
:10247800BAE76146E5E76046CEE700BF0280FFFFA6
:10248800000000300082FF7F007E008000000034E2
:1024980004FF7FBF04FF7F3F002C00F0EB807A69C8
:1024A8000021D8F82030C7F8109003EB820ED7F837
:1024B8001C909300FD610EF104021FED0C6A7B6114
:1024C800331D154656F821204808D8ED0B6ABBF194
:1024D800020F82F40002A2F5000207EE902A53F8D8
:1024E800212082F40002B8EEE77AA2F5000227EE76
:1024F800067A07EE902A0AEB8002F8EEE77A27EED2
:10250800267A67EE867A82ED007A09EB80024FEA36
:10251800800067EEA67AC2ED007A27D05EF8212007
:1025280082F40002A2F5000207EE902A55F8212055
:1025380082F40002B8EEE77AA2F5000227EE067AE6
:1025480007EE902ADCF80820F8EEE77A024427EE36
:10255800267A67EE867A82ED007A98ED0B7ADCF8B7
:102568000C2067EE877A0244C2ED007A02318C4271
:10257800A8D8D7F8109060466208BB694946FD693B
:102588009847D8F828307A69D8ED046A1A441FEDBC
:10259800407A1FED406A131D9246DFF8C4C200223C
:1025A800FB612B1DAB4ED9E9008E4EE0F4EEC67AE6
:1025B800F1EE10FAC0F2C580304645F822000EEB65
:1025C8000100D0ED007A66EEA77AF4EEC77AF1EE54
:1025D80010FA49D9F4EEC67AF1EE10FAC0F2BF80CB
:1025E8003046BBF1020F43F822002AD0D9F8080080
:1025F8000844D0ED007A66EEA77AF4EEC77AF1EED9
:1026080010FA35D9F4EEC67AF1EE10FAC0F2AE80BF
:1026180030464AF82200D9F80C000144D1ED007A7E
:1026280066EEA77AF4EEC77AF1EE10FA1ED9F4EE48
:10263800C67AF1EE10FAC0F28B803146F86940F89C
:102648002210023294427FF6CEAB510808EB81008B
:102658008900D0ED007A66EEA77AF4EEC77AF1EE3B
:1026680010FAA3D86046A8E76046BAE76146E5E7EE
:102678006046CEE7224649466046BB699847FFF761
:10268800B2BBC7F810B0002298ED0B6A331DDFED1E
:10269800726AD7F81CB0786956F8221007EE901ABB
:1026A80053F82210B8EEE77A07EE901A5108023272
:1026B800F8EEE77A27EE267A0AEB810E94420BEBC6
:1026C800810167EEA67A27EE067A67EE867A8EEDA6
:1026D800007AC1ED007ADFD88300D7F810B07B61AB
:1026E8004DE61A46C7F810B098ED0B6A331DDFEDBA
:1026F8005B6AD7F81CB0786936F9221007EE101A11
:1027080033F9221007EE901AB8EEC77A5108023250
:10271800F8EEE77A27EE267A0AEB810E94420BEB65
:10272800810167EEA67A27EE067A67EE867A8EED45
:10273800007AC1ED007ADFD88300D7F810B07B614A
:1027480034E5F0EE675AFEEEE45A15EE900A34E7E7
:10275800F0EE675AFEEEE45A15EE901A6EE7F0EEC8
:10276800675AFEEEE45A15EE900A3AE7F0EE675A19
:10277800FEEEE45A15EE900A4BE767EEA57AFDEEF9
:10278800E77A17EE900A00B232E567EEA57AFDEE19
:10279800E77A17EE900A00B23FE5F0EE675AFEEED0
:1027A800E05A15EE901A4CE6F0EE675AFEEEE05A43
:1027B80015EE900A30E6F0EE675AFEEEE05A15EE96
:1027C800900AFDE5F0EE675AFEEEE05A15EE900A23
:1027D8000AE667EEA57AFDEEE77A17EE901A09B2D7
:1027E8004AE567EEA57AFDEEE77A17EE900A00B2A1
:1027F8002CE5F0EE675AFEEEE45A15EE902A1FE437
:1028080067EEA57AFDEEE77A17EE902A12B2FFF787
:1028180031BBF0EE675AFEEEE45A15EE902AFFF748
:10282800FDBBF0EE675AFEEEE05A15EE902AFFF770
:102838009BBBF0EE675AFEEEE05A15EE902AFFF7C2
:1028480080BB67EEA57AFDEEE77A17EE902A12B202
:10285800FFF724BB82FF7F00000000300000003833
:102868007E0080FF30B5154C154685B0046004F134
:10287800080C01AB07C98CE80700D4ED047AF5EE23
:10288800C07A83E80700F1EE10FA14DDF7EE006A6B
:1028980086EEA77A84ED0B7A6DB1204640F8145F76
:1028A80002F0FEF9064903690020064AE161626206
:1028B800E36005B030BD012005B030BD7C0C0024BC
:1028C800082100300801003000680830704700BF58
:1028D800B1F5806F03680A4628BF4FF48062B1F5EE
:1028E800806F9A6094BF0020012070470068143000
:1028F80002F00CBA30B5046883B008480D46A368E6
:10290800626AE1699B00009004F1140002F0CAF9C0
:102918000020C4E9000503B030BD00BFB11C0008A9
:10292800024B0022C3E90522704700BF7C0C00243B
:10293800B6EE007A437660EE200A0023F7EE007ABE
:10294800016080ED020A60EE870A0276C0ED047A23
:10295800C36087EEA07A436180ED017A704700BFBB
:10296800DFED0E7AB6EE007AF7EE006A4FF080429D
:1029780060EE277A4FF0000C80ED057A4FF48073F3
:10298800016067EE877A80ED020AC0F80CC0026128
:1029980086EEA77A038380ED017A70476F12033BB6
:1029A8000268037E128807EE902AFBEEC87A1BB1F4
:1029B800B7EE007A77EE677AD0ED056A90ED047A83
:1029C80077EEE67A437E67EE877A0BB1F1EE677AA7
:1029D80090ED030A90ED017A77EEC07AA7EE270A08
:1029E80080ED030A704700BF0A884FF0000C028090
:1029F800C0F802C001F02EB810B54379044603713F
:102A080001F004F900280CBF01230023637104D1ED
:102A18002079B0FA80F0400910BD002010BD00BF39
:102A2800704700BF2DE9F041DFF8808082B0B02404
:102A38001C4E1D4D002730468DF80740013439469D
:102A480001F0F2F801220DF10701284602F0A0F981
:102A5800394630468DF8077001F0E6F801220DF18D
:102A68000701284602F094F91023394630468DF8BC
:102A7800073001F0D9F801220DF107012846E4B228
:102A880002F086F90121304601F0CEF84146802255
:102A9800284602F07DF9B82C08F18008CAD102B0A6
:102AA800BDE8F081B0100024AC100024AC0C002468
:102AB8002DE9F047C24E01240D460B8882B0DFF89D
:102AC800108381463046BF4F4FF0200A3380B470E0
:102AD80000F0C0FF6B884046002588F80240A8F83F
:102AE800003000F0B7FF384602F026F92946404684
:102AF80001F09AF80A2002F0C9F92146404601F08F
:102B080093F80A2002F0C2F9AE23294630468DF820
:102B1800073001F089F822460DF10701384602F026
:102B280037F9294630468DF807A001F07DF822468E
:102B38000DF10701384602F02BF9294630468DF889
:102B4800075001F071F822460DF10701384602F0EE
:102B58001FF9B023294630468DF8073001F064F894
:102B680022460DF10701384602F012F9C82329461A
:102B780030468DF8073001F057F822460DF107016D
:102B8800384602F005F9294630468DF8075001F01D
:102B98004BF822460DF10701384602F0F9F81023E8
:102BA800294630468DF8073001F03EF822460DF1EF
:102BB8000701384602F0ECF84023294630468DF8E4
:102BC800073001F031F822460DF10701384602F0CE
:102BD800DFF88123294630468DF8073001F024F8C4
:102BE80022460DF10701384602F0D2F8FF232946A4
:102BF80030468DF8073001F017F822460DF107012D
:102C0800384602F0C5F8A123294630468DF807302A
:102C180001F00AF822460DF10701384602F0B8F82B
:102C2800A623294630468DF8073000F0FDFF2246DE
:102C38000DF10701384602F0ABF8A82329463046C3
:102C48008DF8073000F0F0FF22460DF107013846F5
:102C580002F09EF83F23294630468DF8073000F0F1
:102C6800E3FF22460DF10701384602F091F8A4234C
:102C7800294630468DF8073000F0D6FF22460DF180
:102C88000701384602F084F8D323294630468DF8E8
:102C9800073000F0C9FF22460DF10701384602F05F
:102CA80077F8294630468DF8075000F0BDFF2246D8
:102CB8000DF10701384602F06BF8D5232946304656
:102CC8008DF8073000F0B0FF22460DF107013846B5
:102CD80002F05EF8F023294630468DF8073000F000
:102CE800A3FF22460DF10701384602F051F8D92317
:102CF800294630468DF8073000F096FF22460DF140
:102D08000701384602F044F82223294630468DF858
:102D1800073000F089FF22460DF10701384602F01E
:102D280037F8DA23294630468DF8073000F07CFF63
:102D380022460DF10701384602F02AF812232946E7
:102D480030468DF8073000F06FFF22460DF107017D
:102D5800384602F01DF8DB23294630468DF8073047
:102D680000F062FF22460DF10701384602F010F824
:102D7800294630468DF807A000F056FF22460DF18F
:102D88000701384602F004F8AF23304629468DF88B
:102D9800073000F049FF22460DF10701384601F0DF
:102DA800F7FF4FF48062294607480AF0EFFD4846CE
:102DB800FFF738FE054B1D605C7102B0BDE8F08777
:102DC800B0100024AC100024AC0C0024B410002473
:102DD800BC100024024A034903480AF005B800BFA2
:102DE80000000024292A0008AC100024DFED197A1D
:102DF8004B68B4EE670AD1F80CC010B504460868F1
:102E0800F1EE10FA2DED028B6360B0EE608A8B68EC
:102E1800206084F8302008690A8BA3604B6984ED30
:102E2800070A48BFB0EE670AC4ED080AC4F80CC028
:102E38002061636122830AF07FF9F0EE407AB0EEF8
:102E4800480AC4ED097A0AF077F984ED0A0ABDEC5C
:102E5800028B10BD95BFD63390F8303010B50446BC
:102E6800032B4BD8DFE803F03B2A1502FFF798FD48
:102E780060EE006AD4ED077A94ED087A26EE800AAF
:102E880037EE677AE0EE077AC4ED0B7AB0EE670AA0
:102E980010BDFFF785FD94ED097AD4ED0A7A77EE37
:102EA800C77AA0EE277AB0EE470A0AF0D3F8F0EE18
:102EB800407A84ED0B0AB0EE670A10BDFFF770FD8B
:102EC800D4ED077A94ED087A20EE000A37EE677A97
:102ED800E0EE077AB0EE670AC4ED0B7A10BDFFF793
:102EE8005FFDD4ED077A94ED087A37EE677AE0EE65
:102EF800077AB0EE670AC4ED0B7A10BDD0ED0B7AF5
:102F0800C4E700BFB7EE007A0346012282B0C1F3DE
:102F180007204FF0000CC7EE007AADF80410C3F894
:102F28000CC04FF0000C987098181A70597083F8FC
:102F380003C09A809A71C3ED027A02B000F08ABD8C
:102F480038B54479054683790130640064B2B3B179
:102F580000F05CFEB0FA80F35B092343DBB2A3F117
:102F68007F026B71012A0ED9FF2B07D1D5ED037AA9
:102F780095ED027A77EE877AC5ED037A38BD00F0D1
:102F880045FE43B2E9E70023EB6038BD82B04FF05D
:102F9800000C0323ADF80410BDF8042080F810C01D
:102FA8000280438002B0704782B0082AADF8003032
:102FB8004FF00303ADF804104380BDF80410BDF8CA
:102FC8000830BDF800C0018003811346BDF80C101D
:102FD80028BF0823042AA0F804C08181037406D8F6
:102FE800022A0AD801D10123C38002B07047012305
:102FF800C3804381C38102B070470123C3804381EA
:1030080002B070472DE9F04F03700D460023D44CF1
:10301800D4498DB0426006468B611746C4F8281122
:10302800A4F80931C4F8FD30C4F80131C4F80531F9
:10303800C4F80C31C1E90033C1E90233C1E90433F2
:103048003831CDE90133CDE90333CDE90533CDE995
:103058000733CDE90933C4E94433C4E94633C4F836
:103068002C11C4E9483384F8FC2084F80C324368F6
:10307800002B00F0E781EB68A44628686968AA6815
:10308800ACE80F002B7C8CF800302B7C84F8FD30EA
:103098002B7C002B40F0FB817368012B40F29A8156
:1030A800D5F81130D5F81D20D5F81500D5F8191028
:1030B800C4F81130AC4B58609960DA6095F821205B
:1030C8001A7495F8213084F8FE3095F82130002BD9
:1030D80040F0E1817368022B40F27C81D5F8223000
:1030E800D5F82E20D5F82600D5F82A10C4F82230B5
:1030F8009E4B58609960DA6095F832201A7495F8FA
:10310800323084F8FF3095F83230002B40F0C78118
:103118007368032B40F25E81D5F83330D5F83F2031
:10312800D5F83700D5F83B10C4F83330904B5860C9
:103138009960DA6095F843201A7495F8433084F85A
:10314800003195F84330002B40F0AD817368042BB3
:1031580040F240812B6D686CA96CEA6CDFF82CC2D8
:10316800ACE80F0095F854308CF8003095F85430DE
:1031780084F8013195F8543013B1012384F80C32E6
:103188007368052B40F22681D5F85530D5F86120B3
:10319800D5F85900D5F85D10C4F85530754B58600E
:1031A8009960DA6095F865201A7495F8653084F8A6
:1031B800023195F8653013B1012384F80C32736835
:1031C800062B40F20781D5F86630D5F87220D5F87D
:1031D8006A00D5F86E10C4F86630674B586099607D
:1031E800DA6095F876201A7495F8763084F8033109
:1031F80095F8763013B1012384F80C327368072BE5
:1032080040F2E880D5F87730D5F88320D5F87B00F0
:10321800D5F87F10C4F87730584B58609960DA6059
:1032280095F887201A7495F8873084F8043195F852
:103238008730002B40F0AC817368082B40F2CA80BD
:10324800D5F89430D5F88800D5F88C10D5F89020AA
:10325800DFF83CC1ACE80F0095F898308CF80030E6
:1032680095F8983084F8053195F89830002B40F09F
:1032780093817368092B40F2AD80D5F89930D5F861
:10328800A520D5F89D00D5F8A110C4F899303C4B7D
:1032980058609960DA6095F8A9201A7495F8A930F1
:1032A80084F8063195F8A930002B40F07B817368CB
:1032B8000A2B40F28F80D5F8AA30D5F8B620D5F879
:1032C800AE00D5F8B210C4F8AA302E4B58609960F9
:1032D800DA6095F8BA201A7495F8BA3084F807318C
:1032E80095F8BA30002B40F0618173680B2B71D9C7
:1032F800D5F8BB30D5F8C720D5F8BF00D5F8C3102E
:10330800C4F8BB30204B58609960DA6095F8CB2040
:103318001A7495F8CB3084F8083195F8CB30002B27
:1033280040F0488173680C2B54D9D5F8D830D5F8BB
:10333800CC00D5F8D010D5F8D420DFF858C0ACE8C8
:103348000F0095F8DC308CF8003095F8DC3084F804
:10335800093195F8DC30FBB1012384F80C321BE00D
:10336800C010002408410030D1100024E2100024CD
:10337800F31000241511002426110024371100240D
:10338800591100246A1100247B110024041100241F
:10339800481100248C11002473680D2B1AD9D5F814
:1033A800DD30D5F8E920D5F8E100D5F8E510C4F806
:1033B800DD30BB4B58609960DA6095F8ED201A74DF
:1033C80095F8ED3084F80A3195F8ED3013B1012302
:1033D80084F80C324FF48022B24808210023FFB24F
:1033E800C4F83831C4F8487184F84431C4E94C024F
:1033F8000122C4E94F2194F80C12C4E9553399B35A
:1034080084F8453184F84C21C4F85C2133780020D5
:103418000021C4E958018BB30122013B84F86821DB
:10342800C4F878210022C4F87421082B28D8DFE8D2
:1034380013F0C500CA00CF00D400D900DE00E300B5
:10344800E900F000D7B2C4F83831964A012184F86F
:103458004431C4F84871C4E955334FF48023C4E9B2
:103468004C230823C4E94F13012384F84531002372
:1034780084F84C310323C4F85C31C7E784F8683119
:10348800894802F063FB034688B1FFBEFEE70123CB
:1034980084F80C3200E6012384F80C321AE6012382
:1034A80084F80C3234E6012384F80C324EE601A984
:1034B8007D48019302F0A8FC0546002870D102223D
:1034C80040F2FF73CDE9062300230422CDE9082347
:1034D80094F8FC30002B00F0D3804FF0060921E06F
:1034E800022B00F09D80012B40F0C2809AF8013039
:1034F800012B00F0BF80002B6C4B18BF002304A9E0
:103508006948CDE9043901F04DFF002840F0BD803D
:10351800013594F8FC30EDB2AB4240F2B180644B17
:1035280053F825902FB207EB071704EB070A50460C
:1035380000F090FA05EB051323441B7C042B7BDC7D
:10354800022B00F38F8000F08B806319002283F830
:10355800EE20E35D002BC3D19AF80130062B00F072
:103568008380072B00F08880022B00F09080032BCB
:1035780000F08F80002B00F08E80012B00F08D80F2
:10358800042B00F0AF80052B4A4B18BF0023B6E789
:10359800012384F80C324FE6012384F80C3268E6E4
:1035A800FFBEFEE7012384F80C3280E6012384F88D
:1035B8000C329AE6012384F80C32B3E60323402246
:1035C800C4E95B325CE707236022C4E95B3257E752
:1035D8000F238022C4E95B3252E71F23A022C4E9EB
:1035E8005B324DE73F23C022C4E95B3248E77F23C3
:1035F800E022C4E95B3243E7FF234FF48072C4E959
:103608005B323DE740F2FF134FF49072C4E95B323E
:1036180036E740F2FF334FF4A072C4E95B322FE77C
:103628009AF80130042B21D0052B27D05BB3012B4E
:10363800214B18BF002362E703233E1D04EB050856
:103648004FF0000B264488F8EE3030460BF1010BA2
:1036580000F000FA98F8EE3004365B45F5DC78E7C0
:103668000123EAE70223E8E7144B48E7144B46E74F
:10367800002344E7134B42E7134B40E7134B3EE765
:103688000DB0BDE8F08F124B39E7FFBEFEE7114BD6
:1036980035E7114B33E7114B31E7114B2FE700BFEB
:1036A8009D11002400200240F01100240002B025E2
:1036B80038DC00080000B84F0008302E0800900CD5
:1036C8001000C0102000F0148000501D000180215F
:1036D8000004002A0040C03A0080F03E0000214368
:1036E80000005247004B0AE70000844B38B5094CEC
:1036F80040F2FF724FF0011104F59875284602F068
:1037080031FB94F8FC20D4F828112846BDE838404D
:1037180002F09CB8C0100024034B0D29D3F82801EF
:1037280098BF00EB41007047C0100024044B0D29DE
:10373800D3F82C0198BF00EB011000EB4200704752
:10374800C0100024214B02689A4200D07047204BD9
:1037580000212048D3F8D82030B542F020021E4C72
:1037680083B0C4F8940104F5CA75C4E96D11C3F8AF
:10377800D8200922D3F8D830284603F02003019333
:10378800019B94F80C328B4214BF0B464FF48073A4
:10379800C4F8B0310023C4E9662300224FF48063E3
:1037A800C4E968234FF400624FF40053C4E96A2364
:1037B80002F0FEFD08B1FFBEFEE704F59873C4F8F9
:1037C8007C51C4F8CC3103B030BD00BF00200240AA
:1037D8000044025840000240C0100024014803F091
:1037E8005FB900BF5412002402682DE9F84F4C4B12
:1037F8009A4201D0BDE8F88F4A4E96F80C32002B59
:10380800F8D096F8FC20002A76D0002406F10C099E
:1038180006F5867506F1FC07A04613E003F00101E2
:1038280017F80FBCA9F1080000F0FEF9BBF1010F71
:1038380025D896F8FC20013409F111090235A3B204
:103848009A422BD917F8013F002BF4D0D6F828312B
:1038580000212A7833F81400D6F82C3103EB04132E
:1038680023F812002B8801339BB22B805FFA83FA6E
:103878003A789A42D2D88A46A5F80080D0E7CAF3A7
:103888004001A9F1040000F0CFF9BBF1020FCAF31F
:103898008001CED0484600F0C7F9CAE796F80C0276
:1038A80009220023204900284FF00000C6F894118F
:1038B8004FF48061C6E966234FF400624FF4005369
:1038C800C6E96A2314BF00224FF48072C6E9680172
:1038D80000231648C6E96C23C6F8B83102F068FD23
:1038E80008B1FFBEFEE796F8FC20D6F8281110486C
:1038F800BDE8F84F01F0AABF092000210A4BC6E92C
:10390800660100204FF48061C6F89431C6E9680169
:103918004FF400604FF40051C6E96A01D8E700BFD0
:1039280000200240C010002440000240541200242D
:10393800F0110024704700BF30B5184D8BB00C460D
:103948002B7E68619BB1002202230021CDE9002370
:10395800002200230491CDE90223C4B1032C16D020
:1039680004F0FD03012B0AD06C760BB030BD0C4B74
:1039780028462B6002F088FB01232B76E3E7102210
:103988006946064802F096FB6C760BB030BD002203
:103998006946024802F08EFBE2E700BFD01200241D
:1039A80000740040284B02689A4200D07047274BA9
:1039B80003200021D3F8E82042F0005230B5C3F8C4
:1039C800E82089B0D3F8E820214C02F00052019297
:1039D800019AD3F8E02042F00102C3F8E020D3F8BE
:1039E800E020637E02F00102049005910292029A9F
:1039F8003BB1834205D003F0FD03012B13D009B07E
:103A080030BD65690235284601F0EEFB03462846BD
:103A18001D4601F0F1FB034603A92846039303F072
:103A280091FB637EE7E764690434204601F0DCFB20
:103A3800034620461C4601F0DFFB034603A9204647
:103A4800039303F07FFBDAE7007400400044025858
:103A5800D012002430B583788FB00446022B37D0BB
:103A6800032B33D0012B31D000230A93E378012BA9
:103A78002AD0022B28D000230B93002320460C9336
:103A880001F0B2FB0546204601F0B6FB2378099009
:103A9800082B13D8DFE803F01F3245586B7E91A43A
:103AA8000500594BD3F8E02042F48072C3F8E020B7
:103AB800D3F8E03003F480730893089B09A92846DB
:103AC80003F040FB0FB030BD0B93D6E70A93CDE768
:103AD80011230A93CAE74C4B09A92846D3F8E020DA
:103AE80042F00102C3F8E020D3F8E03003F001030C
:103AF8000093009B03F026FB0FB030BD424B09A991
:103B08002846D3F8E02042F00202C3F8E020D3F8B8
:103B1800E03003F002030193019B03F013FB0FB0A5
:103B280030BD394B09A92846D3F8E02042F00402F9
:103B3800C3F8E020D3F8E03003F004030293029BBB
:103B480003F000FB0FB030BD2F4B09A92846D3F86E
:103B5800E02042F00802C3F8E020D3F8E03003F098
:103B680008030393039B03F0EDFA0FB030BD264B17
:103B780009A92846D3F8E02042F01002C3F8E02053
:103B8800D3F8E03003F010030493049B03F0DAFA4F
:103B98000FB030BD1C4B09A92846D3F8E02042F0ED
:103BA8002002C3F8E020D3F8E03003F020030593A7
:103BB800059B03F0C7FA0FB030BD134B09A928467F
:103BC800D3F8E02042F04002C3F8E020D3F8E03018
:103BD80003F040030693069B03F0B4FA0FB030BD20
:103BE800094B09A92846D3F8E02042F08002C3F81F
:103BF800E020D3F8E03003F080030793079B03F03D
:103C0800A1FA0FB030BD00BF0044025838B50546D0
:103C180001F0EAFA0446284601F0EEFA0146204689
:103C2800BDE8384003F096BC70B506460D4601F075
:103C3800DBFA0446304601F0DFFA2A1E0146204628
:103C480018BF0122BDE8704003F08ABC2DE9F04797
:103C580004460E461746984600F18405284604F0A7
:103C680061FE2028FAD12168234B0129E36006D0A0
:103C780002293ED0002939D00120BDE8F08724234D
:103C880023614023002004F10C0A63614FF4806330
:103C9800A0612063E361C4E90800C4E90A00C4E93B
:103CA8000E00504602F084FB814608B1FFBEFEE7D5
:103CB8007100656494F900602846C4F8BCA03A46CF
:103CC8000E4C4346089D89B226700D4E099F3560FB
:103CD8000C4D2F6003F024FE0028CED0FF230120D6
:103CE800C6F80090C5F800902370C6E72223236128
:103CF800C7E74A232361C4E7A00002402C1300242D
:103D0800EC120024301300240023122270B586B070
:103D1800CDE9022304930368032B01D804230593F8
:103D2800061D841D304601F05FFA0546304601F055
:103D380063FA034601A92846019303F003FA2046D3
:103D480001F052FA034620461C4601F055FA01A933
:103D580003462046019303F0F5F906B070BD00BF95
:103D6800634A0368934210B58CB028D0614A9342E5
:103D780058D0614A934200F09480604A934201D03F
:103D88000CB010BD5E4C5F48D4F8E03043F002033D
:103D9800C4F8E030D4F8E03003F002030A930A9B39
:103DA800FFF7B2FFD4F8F43043F08003C4F8F430DE
:103DB800D4F8F43003F080030B930B9BE0E7504CEE
:103DC8005148D4F8E03043F00203C4F8E030D4F8A6
:103DD800E03003F002030193019BFFF795FFD4F84D
:103DE800E83000221F2043F400131146C4F8E830DD
:103DF800D4F8E83003F400130293029BD4F8D830C7
:103E080043F00103C4F8D830D4F8D83003F00103E4
:103E18000393039B02F06CF81F200CB0BDE8104020
:103E280002F0A4B8364C3948D4F8E03043F08003A7
:103E3800C4F8E030D4F8E03003F080030493049B26
:103E4800D4F8E03043F00203C4F8E030D4F8E030AE
:103E580003F002030593059BFFF756FFD4F8E830FB
:103E68000022212043F480031146C4F8E830D4F836
:103E7800E83003F480030693069BD4F8D83043F067
:103E88000103C4F8D830D4F8D83003F001030793FD
:103E9800079B02F02DF821200CB0BDE8104002F07D
:103EA80065B81B48FFF730FF154B00224820D3F8B0
:103EB800E840114644F40004C3F8E840D3F8E84069
:103EC80004F400040894089CD3F8D84044F0010492
:103ED800C3F8D840D3F8D83003F001030993099BFD
:103EE80002F006F848200CB0BDE8104002F03EB8D9
:103EF8000054004000580040005C0040001C00587E
:103F080000440258A4150024341300240414002487
:103F1800D41400240B4A00230B494FF0FF0C136004
:103F280081F800C053619362C2E90133C2E90333E7
:103F3800C2E90633C2E90833C2E90B33C2E90D33DB
:103F4800704700BFF01200242C130024064B1A7887
:103F5800120600D570471B78D02204485BB202FBDA
:103F680003000C3002F09CBD2C13002434130024F1
:103F7800014803F08FBD00BFB8130024014803F0C7
:103F880089BD00BF88140024014803F083BD00BF29
:103F980058150024164AFF21F0B5136883B0154C54
:103FA800217023B1002114481160006898472378D4
:103FB8001B0614D5114F0025114E3C466268304649
:103FC800D03642B123690193E3680093238921889D
:103FD800FFF73CFE28B101351434032DEED103B0B0
:103FE800F0BD05EB850507EB85056860F7E700BFC1
:103FF800EC1200242C13002430130024F0120024A7
:1040080034130024F0B583B0164C03F05FFB164A56
:10401800FF21136821702BB1002114481160012180
:104028000068984723781B0614D5114F0025114EB8
:104038003C4662683046D03642B123690193E36852
:10404800009323892188FFF701FE28B10135143434
:10405800032DEED103B0F0BD05EB850507EB850513
:104068006860F7E72C130024EC12002430130024B6
:10407800F012002434130024F0B50F68D025324C18
:1040880085B007FB05F5032F04EB050606602BDC5E
:104098002E4B0DF1100E07C9944686E807000FCB8A
:1040A8000EE90F000EEB8703BCF1010F53F8103C2B
:1040B800C6F884303ED0BCF1020F31D0BCF1000FFD
:1040C80024D08435D0230022012103FB0743254453
:1040D800C3E923212846C3F8A420C3E92522C3E95C
:1040E800272203F0F3FA10B1012005B0F0BD014614
:1040F800284604F01BFC0028F6D10146284604F0A7
:104108003FFC003818BF012005B0F0BD01F01AF8D7
:104118000F4B98420CBF0F4B0F4BC6F88830D0E7B7
:1041280001F010F80A4B98420CBF0C4B0C4BC6F828
:104138008830C6E701F006F8054B98420CBF094BDA
:10414800094BC6F88830BCE734130024C4DB0008E8
:10415800000E27075F4390608A62E030200BA010B2
:104168001A0980102D0FB0303211D0200068704726
:10417800F0B5046883B00D4616461F4684342046C1
:1041880004F0D0FB2028FAD169002046089C3B4661
:10419800324689B2009403F0EFFA003818BF0120C4
:1041A80003B0F0BD00682DE9F041046886B0032C27
:1041B800DDE90CC628D0DFF8608098F8008018F098
:1041C800800F1AD1029204EB8404124A0DF1040EF6
:1041D800CDF810C002EB840C002401940394ADF8D0
:1041E8000410ADF80C30BEE80F00ACE80F00204614
:1041F800CCF8006006B0BDE8F081CDE90CC606B089
:10420800BDE8F041FFF722BD0124204606B0BDE815
:10421800F08100BFF01200242C13002400000000DD
:104228002DE9F04FC84C03462DED048B2046ABB06A
:1042380023655D781E7804F023FDE0B9012D4FF069
:104248000107C24A14BF4FF480134FF40003E06023
:104258002260C4E9017793FAA3F3B3FA83F34FF426
:104268008078013BC4F81480C4E907002046236124
:1042780004F09AFC28B101202BB0BDEC048BBDE8FA
:10428800F08F662313901B9041F288320EA90E938B
:10429800CDE91480CDE91600CDE91900204604F0D7
:1042A8000DFD0028E7D1992341F288320EA9204656
:1042B8000E9304F003FD0028DDD14FF0050A4FF0FE
:1042C8008079249041F28833219008AA29901CA96A
:1042D800CDF870A0CDF894909FED917B9FED929BC7
:1042E8009FED938BCDE92280CDE9270020468DED07
:1042F800087B8DED0A9B8DED0C8B04F04BFE00289E
:10430800B9D11897ADF8080013901B90CDE9148027
:10431800CDE91609CDE91900002D00F0BA80F02387
:10432800ADF80830C02341F288320EA986480E93B2
:1043380004F0C4FC00289ED141F28832824802A9C8
:1043480004F026FD002896D14FF480744FF005083C
:104358004FF080754FF0000A4FF0010B2190299023
:1043680041F2883308AA1CA92294CDF870802595BB
:104378009FED6D9B9FED6E8BCDE92300CDE9270066
:104388007148CDE908AB8DED0A9B8DED0C8B04F0DF
:1043980001FE00287FF46FAF012706238DF8070080
:1043A80041F2883213901CA91B90219029900E97F6
:1043B8001C93CDE91440CDE91605CDE91900CDE9E6
:1043C8002240CDE92400CDE927005F4804F076FCBF
:1043D80000287FF450AF41F2883308AA1CA95A4834
:1043E800CDF8708025959FED547B8DED0A9B8DED62
:1043F8000C8B8DED087B04F0CDFD00287FF43BAFDE
:1044080041F288320EA9504804F058FC00287FF485
:1044180032AF402341F288320DF107014A488DF846
:10442800073004F0B5FC00287FF425AF02AA41F25A
:1044380088330EA94448CDF8388017959FED407B06
:104448008DED049B8DED068B8DED027B04F0A2FDB6
:1044580000287FF410AF219008AA299041F28833F0
:104468001CA92294CDF870802595CDE92300CDE9CB
:1044780027003548CDE908AB8DED0A9B8DED0C8BF7
:1044880004F088FD00287FF4F6AE002E60D00020EE
:10449800F2E6612341F288320EA920460E9304F019
:1044A8000DFC00287FF4E7AE41F2883202A92046CD
:1044B80004F0ECFC00287FF4DEAEBDF8083041F2D1
:1044C800883221901CA923F07803299043F04003F7
:1044D800ADF808300623CDE92280CDE92400CDE9E6
:1044E800270020461C9304F0E9FB00287FF4C3AEA4
:1044F80020460225022441F2883308AA1CA9CDF8D7
:1045080070A0CDF894908DED0A9B8DED0C8BCDE9C4
:10451800084504F03FFD00283FF404AFABE600BFB8
:104528000000000001000000100000000100000071
:10453800000000000000400002000000020000002F
:104548004000000040000000741600240050005293
:10455800EB204FF48074002300251C904FF400508A
:1045680022944FF440641F90A02020930EAA239415
:104578004FF4404427931CA928934FF080531E9072
:1045880006202494002429934FF040732190054875
:104598002593CDE90E4504F075FD003818BF0120BC
:1045A8006AE600BF741600243E4B02682DE9F04706
:1045B8009A428CB04FF00005CDE90755CDE9095571
:1045C8000B9502D00CB0BDE8F087374B022637496F
:1045D80005AFD3F8D420B146DFF8D4A04FF00308D4
:1045E80042F48042C3F8D420D3F8D42002F48042A5
:1045F8000092009AD3F8E02042F04002C3F8E0208D
:10460800D3F8E02002F040020192019AD3F8E020AA
:1046180042F02002C3F8E020D3F8E02002F02002A4
:104628000292029AD3F8E02042F01002C3F8E02088
:10463800D3F8E02002F010020392039AD3F8E020A6
:1046480042F00202C3F8E020D3F8E03003F002039E
:104658000493049B03C90590ADF81810DAF850408C
:1046680034440236204600F0BFFD034620461C466F
:1046780000F0C2FD17F8013B07A907902046CDE9D5
:104688000895CDE90A8302F05DFD0E2EE6D10022E1
:104698005C20114601F02CFC5C2001F067FC0CB09A
:1046A800BDE8F087005000520044025878DC00084A
:1046B80074160024124B02689A4200D07047114ABF
:1046C800D2F8D43070B523F4804302250E4EC2F8D8
:1046D800D430346D2C440235204600F085FD034665
:1046E80020461C4600F088FD0146204602F06AFE7E
:1046F8000E2DEED15C20BDE8704001F045BC00BF36
:10470800005000520044025874160024014804F076
:1047180045BD00BF7416002438B5036871B9026A34
:1047280000F1280500F5AC74012A0CBF00214021D6
:104738008BBB1D4B5722C0F858310DE0426A00F17F
:10474800C00500F5E874012A0CBF00214021EBB137
:10475800164B5A22C0F8D03100232046C4E9012163
:104768004FF480524FF48061636262614FF480427B
:10477800C4E903314FF48073C4E906234FF40033CE
:10478800236201F015FE58B1FFBEFEE7084B582220
:10479800C0F8D031E0E7074B5922C0F85831DBE7C1
:1047A800C5E92044A56338BD1000024070000240EE
:1047B80028000240580002402DE9F043821D0546BA
:1047C8008BB0031D05F10A010830CDE9052305F179
:1047D8000C02AB69CDE907010992002B3DD0EB69CA
:1047E800B3FA83F84FEA58180123022205AE0AAF3C
:1047F8004FF006090393CDE9012356F8044B2B79B2
:104808002278934216D02B68F3B1012B02D1F2B172
:104818000A230493204600F0EFFC03462046009349
:1048280000F0E2FC694602F08DFCBE42E5D10BB017
:10483800BDE8F083697963789942E4D1B8F1000F53
:10484800F3D02B68002BE0D1CDF81090E2E7637825
:10485800022B14BF0A230823DBE74FF00108C3E744
:10486800474A0368934230B5044689B055D0203290
:10487800934252D0434A934204D02032934201D00B
:1048880009B030BD404D4148D5F8E03043F0010350
:10489800C5F8E030D5F8E03003F001030393039B3B
:1048A800D5F8E03043F00803C5F8E030D5F8E0303B
:1048B80003F008030493049BD5F8E03043F0400369
:1048C800C5F8E030D5F8E03003F040030593059BC8
:1048D800D5F8F03043F40003C5F8F030D5F8F030DF
:1048E80003F400030693069BFFF766FFD5F8D8305C
:1048F800216843F00103234A2448C5F8D830891AAF
:10490800D5F8D83018BF012103F001030793079B9E
:1049180009B0BDE83040FFF7FFBE1B4D1C48D5F875
:10492800E03043F01003C5F8E030D5F8E03003F08C
:1049380010030093009BD5F8F03043F48003C5F8CA
:10494800F030D5F8F03003F480030193019BFFF7B2
:1049580033FFD5F8D830216843F00103084A0C48E2
:10496800C5F8D830891AD5F8D83018BF012103F016
:1049780001030293029B09B0BDE83040FFF7CCBEAB
:1049880004580140045C01400044025824190024E2
:10499800C8160024014802F083B800BF201800247C
:1049A800014802F07DB800BF98180024014802F0C1
:1049B80077B800BF7C1A0024014802F071B800BF24
:1049C800F41A00241A4A0368934210B40BD0203218
:1049D800934208D0174A934216D02032934213D0FC
:1049E8005DF8044B7047144B0022D3F85442C3F8C7
:1049F8005822002CF4D0D3F84802D3E99312234666
:104A08005DF8044B520818470B4B0022D3F8B0440A
:104A1800C3F8B424002CE3D0D3F8AC24D3F8A814FA
:104A2800D3F8A404520823465DF8044B184700BF86
:104A380004580140045C0140C8160024184A036861
:104A4800934210B40BD02032934208D0154A9342B7
:104A580017D02032934214D05DF8044B7047124BA4
:104A6800D3E994245208C3F85822002CF4D0D3E98F
:104A78009201234601EB820100EB82005DF8044BB2
:104A88001847094BD3F8AC24D3F8B0445208C3F8FC
:104A9800B424002CE0D0D3F8A814D3F8A404E8E791
:104AA80004580140045C0140C816002400000000BE
:104AB8002DE9F04F0C684FF41776754F87B004FB5B
:104AC80006F6012C07EB060AC0F800A000F3A08048
:104AD8000D468E464FF00008D44669A3D3E900235B
:104AE80069A1D1E90001CDE9022306ABCAF85082D9
:104AF80003EB8403CDE9040153F810BC53F8083CD8
:104B0800CAE992880193BEE80F00ACE80F00BEE83E
:104B18000F00ACE80F00019B9EE80300CAF828B01C
:104B2800CAF8C0308CE803002B69042B0CD8DFE8E6
:104B380003F0737D879103004FF41773554A03FB05
:104B480004739A64C3F8E020AA692B6A002A43D048
:104B5800002B4FF4177308BF022203FB047318BF1E
:104B68000322DA6201221A63EA696B6A002A40D1D9
:104B7800191E4FF4177318BF012103FB0473C3E90F
:104B880031126B69022B05D8434A12F80380434A55
:104B980052F823904FF4177306F12800424649460D
:104BA80003FB04740023384463646363E365C4F857
:104BB800DC30C4F8CC30C4F8F430C4E90F33C4E9AD
:104BC8001533C4E93533C4E93B33022306F05AFBF5
:104BD800002849D0FFBEFEE7191E4FF4177318BF0F
:104BE800012103FB0473C3E90B12EA696B6A002A0B
:104BF800BED0002B4FF4177308BF022203FB0473C7
:104C080018BF0322C3F8C4200122C3F8C820B8E79C
:104C1800012007B0BDE8F08F4FF417734FF4FA5234
:104C280003FB04739A64C3F8E0208DE74FF417730D
:104C38004FF47A5203FB04739A64C3F8E02083E7C5
:104C48004FF417734FF4FA4203FB04739A64C3F8E2
:104C5800E02079E74FF417734BF6803203FB0473B7
:104C68009A64C3F8E0206FE706F1C00002234246C9
:104C78004946384406F006FB0028CAD0FFBEFEE7C6
:104C880004580140045C014024580140245C014060
:104C9800C81600240077010080DC000884DC0008C6
:104CA8000068704770B5046882B015460E46C4F8AF
:104CB8005032C4E99212069AC4F85422226A012A90
:104CC8009AB211D0294604F12800019206F096FB09
:104CD800636A019A012B10D0294604F1C00006F03E
:104CE8008DFB002002B070BD04F12800019206F08F
:104CF80017FC636A019A012BEED1314604F1C0001A
:104D080006F00EFC002002B070BD00BF03681B69EE
:104D1800042B05D8044A02EB830393ED000A70477D
:104D28009FED020A704700BF90DC000800803B47F7
:104D38000368D3F85802704710B513484FF0005273
:104D4800124C4FF480010023826104604FF4003458
:104D580041600721C2614FF0804203614361846072
:104D6800C160C0E90833C0E90A33C0E90D23C0E9CE
:104D78000F33C0E91133C0E91333C0E9153306F026
:104D8800A1FD00B1FFBE10BD801B00240030014012
:104D98006423024892B206F043BE00BF801B002481
:104DA800304A0023016810B5914288B0CDE9033339
:104DB8000593CDE9063301D008B010BD2A4B04464F
:104DC800D3F8F02042F48052C3F8F020D3F8F02052
:104DD80002F480520092009AD3F8E02042F00202D6
:104DE800C3F8E020D3F8E02002F002020192019A11
:104DF800D3F8E02042F04002C3F8E020D3F8E030D6
:104E0800826803F04003B2F5003F0293029B26D06C
:104E1800B2F5802F20D1102303930222052303A982
:104E280012480492079302F08DF9A3694FF40062C7
:104E3800B3F1806F039202D04FF4406303930023D1
:104E48000522022403A90A48CDE90443CDE9063224
:104E580002F078F908B010BD30230393DDE7202372
:104E68000393DAE700300140004402580004025876
:104E780000180258704700BF08B500F01DFABDE8D9
:104E8800084001F0FDB800BF704700BF00F026BA27
:104E98000146014807F0BAB8081C0024F0B5CFB0A5
:104EA80004464C2200210AA808F070FD20220021A7
:104EB80002A808F06BFDBC2200211EA808F066FDC0
:104EC800022003F089FD2368012B4FF0000352D024
:104ED800514A02250193C820D16A504B21F00101A3
:104EE800D162D26A02F0010201929A6942F4404208
:104EF8009A619B6903F440430193019B474A936974
:104F08009B04FCD546490224002201268B6A082707
:104F180023F0030323438B6205231096042618937A
:104F28004FF4803316900AA81794199415961A9777
:104F3800CDE91B222122CDE91344CDE90A2304F04F
:104F480035FA00B1FEE73F220323294602A8CDE93E
:104F5800022300220823CDE9042340224023CDE97F
:104F6800062340234FF48062CDE9082304F04CFD6A
:104F78000346B8B1FEE7294A04250093F020916959
:104F8800254B41F440419161926902F440420092FC
:104F9800DA6A42F00102DA62DB6A03F00103009385
:104FA800009BABE70A22202126934FF4401522925A
:104FB80080222B914FF4806131931EA823942C9169
:104FC8004FF480512197359164211F962A9620919C
:104FD800CDE92423CDE92F43CDE92D33CDE93B336A
:104FE8004FF48033CDE9334246934FF48072002466
:104FF8000623439240F2271227931023CDE93E451A
:10500800084CCDE928231E9404F03EFF00B1FEE7CA
:1050180003F008FD4FB0F0BD0004005800480258E6
:105028000044025809130F032DE9F04104460D46C8
:1050380084B001264FF480774FF00008D1E90001D1
:1050480084E8030000F008F92046FFF727FF00F086
:10505800C5FF4FF040536846ADF800600193364BEA
:105068000397029300F0D8FF4FF040431922684697
:105078008DF80F6001938DF80820ADF80D708DF84C
:1050880001608DF80A8000F0C7FF042000F0B4FF2B
:1050980006F0C4FFFEF73EFF2B791BBB6B799BB173
:1050A800BFF34F8FBFF36F8F244B0022C3F85022FA
:1050B800BFF34F8FBFF36F8F5A6942F400325A61C2
:1050C800BFF34F8FBFF36F8F0022002369461C4840
:1050D800CDE9002306F02EFF194806F08DFF04B035
:1050E800BDE8F081154CC4F88480BFF34F8FD4F825
:1050F800803043F6E071C3F3C906C3F34E334FEA79
:10510800431C0CEA0100334640EA8372013BC4F8B1
:1051180060225A1CF8D1ACF1200C1CF1200FF0D100
:10512800BFF34F8F636943F480336361BFF34F8FDD
:10513800BFF36F8FB2E700BF0E00010300ED00E080
:10514800081C002404F090BD03480023034A0449C6
:10515800036007F049BE00BF081C002400000024BB
:105168007D4E000810B41A4C00221A4BD4F888104F
:10517800194841F47001C4F888101968174C41F0B7
:10518800010119601A6119680840154918609A6187
:10519800DA611A629A62DA621A635A639A63DA63A4
:1051A8001A645A64186820F4802018601A66236804
:1051B8001940B1F1005F03D20A4B0122C3F808215C
:1051C800034B4FF000625DF8044B9A60704700BFD4
:1051D80000ED00E0004402587FEDF6EA0010005CA4
:1051E8000000FFFF00800051024B027853F82200B4
:1051F800704700BFD4DC0008024B427833F8120035
:10520800704700BFB4DC0008704700BF0F4B1B7825
:105218000BB90120704710B504464FF47A700C4A58
:10522800B0FBF3F31068B0FBF3F000F0C1FE0F2CF5
:1052380000D808B1012010BD002221464FF0FF30F0
:1052480000F056FE034B00201C6010BDB80000247F
:10525800B0000024BC00002438B50320124D00F033
:1052680035FE124C04F030FB114A12499369C3F31E
:105278000323CB5C03F01F0320FA03F30F202B60FA
:10528800926902F00F028A5C02F01F02D340236089
:10529800FFF7BCFF10B10124204638BD0446FFF7D4
:1052A800B3FF204638BD00BFB0000024B40000247E
:1052B80000440258A4DC0008034A044B11681B7818
:1052C8000B441360704700BF0C1C0024B800002476
:1052D800014B1868704700BF0C1C002438B5044601
:1052E800FFF7F6FF0546631C02D0044B1B781C44ED
:1052F800FFF7EEFF431BA342FAD338BDB8000024E2
:10530800014B1868000C70470010005C704700BF24
:10531800806B08B5FFF7FAFF08BD00BF836B5A6DB5
:1053280012F0500F5A6D10B51DD1196842F4007271
:105338005A650A6812F0080FCA681BD012F4406F49
:105348000DD1CA6894040AD45A6D22F480725A6541
:105358005A6DD10403D45A6D42F001025A651846B9
:10536800FEF742FA10BDD2060AD4DB6CBDE8104045
:10537800DB6C18479007E7D01846FEF735FAF1E7D7
:105388001846FEF7D7FA10BD806B08B5436D43F099
:1053980040034365836D43F004038365FEF7CAFA4F
:1053A80008BD00BFF0B5002283B0019290F85020EC
:1053B800012A00F01C81034601201A6883F8500076
:1053C8009468640700F18A800C68C4F31305002D03
:1053D80040F08F80C4F38464A0404D684FF01F0EE6
:1053E800D6694FEA951C30430CF00C0CD06105F0DF
:1053F8001F0002F1300584400EFA00FE5CF805003B
:1054080020EA0E0004434CF80540906840076ED42B
:10541800956815F0080547D10C68072002F11406B5
:10542800B94F4FEAD45CC4F304540CF0040C00FAEE
:1054380004FE886800FA04F45CF8060020EA0E000E
:1054480020434CF80600386800F07040B0F1805FE7
:1054580000F0C580D068D668C70600F1E880C6F3BA
:1054680082064869760000FA06F60F69042F00F0F4
:10547800C18002F16004086854F827C000F0F840C1
:105488000CF0004C40EA0C00304344F82700487EFA
:105498000E69012854F8260008BF4FF0004520F097
:1054A8000040054344F826509068C40714D4CE68D9
:1054B800086806F01807954CD2F8C050FC40C0F3B5
:1054C8001307044025EA07052C43C2F8C040904C56
:1054D800A64246D0002816DB002003E05A6D42F0B1
:1054E80020025A65002283F8502003B0F0BD90686E
:1054F800DAE794FAA4F5B5FA85F5C4F3846405F0FF
:105508001F05A84069E783498A4200F0B68001F583
:1055180080718A4200F0B1807F4D804CA968A468F0
:1055280001F0E076E44304F00104002C00F0B480BC
:105538007B4CA04200F0FC807A4CA04200F01A811B
:10554800794CA042C8D14902C6D474498A42C3D111
:10555800AA68002022F0E072324342F48002AA6076
:10556800C0E7002F6AD090FAA0F4B4FA84F40134AA
:1055780004F01F04092C00F2A48090FAA0F4B4FAF5
:1055880084F490FAA0F5B5FA85F5013401260135C1
:10559800A40605F01F0504F0F84406FA05F52C43A7
:1055A80090FAA0F0B0FA80F0304400F01F0000EB51
:1055B800400000052043C60D02F11405C0F3045055
:1055C800072406F0040604FA00F7745924EA0704CD
:1055D8008F6807FA00F02043705108687AE7D668A8
:1055E8004869C6F38206760000FA06F63DE702200F
:1055F80003B0F0BD106E0C6800F0F840A506B0EBE3
:10560800846F30D0506E00F0F840854226D0906EFE
:1056180000F0F84085422BD0D06E00F0F84085426B
:105628007FF442AFD06E20F00040D0663CE77608A9
:10563800486906F0080600FA06F616E7800E441CCC
:1056480004F01F06092E2DD8A406012004F0F84402
:10565800B040044306EB46000005ABE7506E20F06F
:1056680000405066D3E7106E20F000401066C9E78E
:10567800906E20F000409066CEE7264C2B4D04F546
:105688008074A96854F8F86CA468344301F0E07693
:10569800E44304F0010448E75A6D012042F0200277
:1056A8005A651FE706EB4600A50601241E3805F0DB
:1056B800F84504FA06F60005354340F00070284323
:1056C80079E790FAA0F5B5FA85F590FAA0F4B4FA5E
:1056D80084F4013501260134AD0604F01F0405F0F9
:1056E800F84506FA04F4254390FAA0F4B4FA84F4D1
:1056F800344404F01F0404EB4404A4F11E00000524
:1057080040F00070DBE700BF0010005CFFFF0F00F7
:105718000000FF4700200240006302580060025862
:10572800000084CB000052C70000B8CF002302401D
:1057380008023FF5D1AE17498A427FF4CDAE164A2A
:10574800A9681268154821F0E07192093143A0FB5D
:10575800020241F400019209A96052000192019AE3
:10576800002A3FF4B9AE019A013A0192019A002A3F
:10577800F9D1B1E611F080707FF4AEAE05498A42E6
:105788007FF4AAAEAA6822F0E072324342F0807237
:10579800AA60A7E600600258B0000024632D3E0509
:1057A80003689A68D20701D5002070479968214A92
:1057B800114270B5044608D0636D012043F0100310
:1057C8006365A36D0343A36570BD99681A4A0A40CF
:1057D80042F001029A60FFF77BFD2368174A0546ED
:1057E80093421ED002F5807293421AD0144A9268EE
:1057F800114E0AE09A68324042F001029A60FFF7BF
:1058080067FD401B0228D7D823681A68D2070FD42F
:105818009A68D107EED5FFF75BFD401B0228F3D944
:10582800CAE7084A9268D006E2D0074A9342DFD115
:10583800002070BD3F000080C0FFFF7F00200240B5
:105848000063025800230240002102402DE9F04184
:105858003A4D044600680F461646A84219D0384B00
:10586800984216D0374DAB688068420716D494F832
:105878005020012A12D003F01F080122B8F1090FA5
:1058880084F850200DD90023012084F85030BDE859
:10589800F0812D4DAB6880684207E8D50220BDE84D
:1058A800F08140F2212323FA08F3DB4313EA0205CF
:1058B800E9D12046FFF774FF002839D1626D234BE8
:1058C8002168134043F480736365B8F1000F02D078
:1058D8001B4B994203D0636D23F480136365636D9A
:1058E80013F4805328D0A36D23F00603A365E06C5E
:1058F8003346174D3A464031C563164D0564164D7B
:10590800C5641C2541F8405C002584F8505051F8C6
:105918003C5C45F0100541F83C5C00F007FF22684C
:105928000E4B91680B4043F004039360BDE8F0818F
:1059380084F85050BDE8F081A365D8E70020024004
:10594800002102400063025800230240FEF0FFFFDE
:10595800255300081953000891530008C0FFFF7F22
:1059680038B503689A68910702D59B68002038BD4E
:105978009A68D20723D59A68044602F00D02012AD4
:1059880008D0636D012043F010036365A36D0343E2
:10599800A36538BD986803210A4A024042F0020212
:1059A8009A601960FFF794FC054604E0FFF790FC45
:1059B800401B0228E5D823689B68DB07F6D4002043
:1059C80038BD00BFC0FFFF7F38B5574A044603689B
:1059D800934226D002F58072934222D0534B9B68A3
:1059E80013F4403F22D004F029F963680546B3F563
:1059F800003F00F08880B3F5403F70D0B3F5803F9A
:105A080000F08180FFF77CFC41F2030398422DD817
:105A1800474B9D425DD92268936843F48073936035
:105A280038BD444B9B6813F4403FDCD14FF4002051
:105A380005F0A2F963680546B3F5101F6DD008D8C4
:105A4800B3F5E01F55D01AD9B3F5001FDAD14509CF
:105A5800D8E7B3F5201F4AD0B3F5301FD2D1FFF7EE
:105A68004FFC41F20303984233D92D0A324B9D4231
:105A78001DD82268936823F44073936038BDB3F54A
:105A8800801F06D00AD9B3F5A01F02D0B3F5C01FF6
:105A9800B8D19B0C5B00B5FBF3F5B3E7B3F5002F6A
:105AA800F7D023F40022B2F5802FF2D0AAE7234BD7
:105AB800234A2B4493421ED9224B234A2B44934218
:105AC800226893682BD823F4407343F400739360DF
